:100000000C9449030C9471030C9471030C947103C8
:100010000C9471030C9471030C9471030C94710390
:100020000C9471030C9471030C9471030C94670D80
:100030000C9471030C9471030C9471030C94710370
:100040000C947A170C9471030C9471030C94710343
:100050000C9471030C9471030C9471030C94710350
:100060000C9471030C94710307634236B79BD8A7B5
:100070001A39685618AEBAAB558C1D3CB7CC5763CD
:10008000BD6DEDFD753EF6177231BF000000803F7B
:1000900008000000BE922449123EABAAAA2ABECD97
:1000A000CCCC4C3E00000080BEABAAAAAA3E000009
:1000B0000000BF000000803F000000000008417801
:1000C000D3BB4387D1133D190E3CC3BD4282AD2B38
:1000D0003E68EC8276BED98FE1A93E4C80EFFFBE30
:1000E00001C4FF7F3F0000000000456C6576656E2F
:1000F00000456C6576656E0005077F4141417F3E96
:100100005B4F5B3E3E6B4F6B3E183C783C18183C97
:100110007E3C181C577D571C1C5E7F5E1C007E4376
:10012000437E007E73737E007E7F7F7E7F414141F0
:100130007F30483A060E06297929067F4141417FE2
:1001400060703F02042A1C361C2A7F3E1C080000F7
:10015000081C3E7F14227F22143C3C3C7EFF184248
:100160003C817E3E6375633E3E616B633E3E636BE6
:100170006B3E04027F020410207F201008082A1C16
:1001800008081C2A0808143E5541226375697563E6
:1001900010181C1810040C1C0C04000000000000B7
:1001A000005F00000007000700147F147F14042A7A
:1001B0007F2A10231308646236495620500008072E
:1001C0000300001C2241000041221C002A1C3E1C8E
:1001D0002A08083E080800E060000008080808082F
:1001E000006060000060100804033E5149453E0075
:1001F000427F400062514949462141494D3318141C
:10020000127F1027454545393C4A49493041211163
:1002100009073649494936064949291E0000240084
:100220000000806400000814224100141414141407
:10023000004122140802015909063E415D594E7CD5
:100240001211127C7F494949363E414141227F418A
:1002500041221C7F494949417F090909013E414129
:1002600051327F0808087F00417F41002041413F13
:10027000017F081422417F404040407F020C027FF2
:100280007F0204087F3E4141413E7F090909063E45
:10029000416141BE7F091929462649494932010178
:1002A0007F01013F4040403F1F2040201F3F40381A
:1002B000403F631408146303047804036151494503
:1002C00043007F41410003040810600041417F006A
:1002D000040201020480808080800003070800205F
:1002E000545478407F28444438384444442838449F
:1002F00044287F3854545418087E09090218A4A4CD
:100300009C787F0804047800447D4000006080846D
:100310007D7F1010284400417F40007C04780478E1
:100320007C080404783844444438FC182424181801
:10033000242418FC7C080404080854545420043F66
:100340004444203C4040207C1C2040201C3C402059
:10035000403C44281028444C9090907C4464544C79
:1003600044000836410000007F00000041360800CC
:10037000180408100C7F4141417F03053F213F0ACB
:10038000100A1208120E1C0E0C1E0C141A14161F42
:10039000161E131E1E1B1E1E1F1E3F213F3A2F3A04
:1003A000173D173F213F181F02040A041F0E0404C3
:1003B0000E1F0A1F0A0E0E1F04110E2E252E2F2AA5
:1003C0002E262929021F02081F08150E04040E15E7
:1003D0000E15151B151B040604040C040000000078
:1003E00017000300031F0A1F16371A1904130A15F2
:1003F0003A000300000E11110E000A040A040E0454
:100400000030000404040010001804031F111F1220
:100410001F101D151711151F07041F17151D1F1578
:100420001D01011F1F151F17151F000A00003200B4
:10043000040A110A0A0A110A040115020E11171EF4
:10044000051E1F150A0E110A1F110E1F15111F057B
:10045000010E111D1F041F111F1108100F1F041B77
:100460001F10101F061F1E040F0E110E1F09060E6F
:10047000112E1F051A121509011F011F101F0F1839
:100480000F1F0C1F1B041B031C03191513001F1146
:10049000030418111F000201022020200001020C99
:1004A000121E1F120C0C12120C121F0C1A14041E16
:1004B00005242A1E1F021C141D1020201D1F0814B5
:1004C000111F101E041E1E021C0C120C3E0A040CEE
:1004D000123E1E040214160A020F120E101E0E10F7
:1004E0000E1E081E120C1226281E322A26041E2159
:1004F000001F00211E040102013F213FF6E8DBCF6F
:10050000C3B8AEA49B928A827B746E68625C5752B9
:100510004E4945413E3A3734312E2C292725232197
:10052000450068010000050038016801000036053B
:1005300032050101FF030101F7030A4E6F20534406
:100540002063617264206F720A6E6F204C4F4144C9
:1005500045522E4845580A0A153A45786974001DD7
:1005600020466C617368696E670A20206C6F616455
:1005700065722E2E2E0A0A444F4E2754205455528F
:100580004E204F464621004E4F2042415454455282
:10059000590A0A504C454153450A5455524E204F72
:1005A000464600175344001613780016131400151E
:1005B00010200015201000540A03E181867F3E18A8
:1005C0006D830F0F0E0183866033186DC3198F186A
:1005D00003C38E6033186DE330CF1803C39E6036BB
:1005E00030CDE360CF3006C79E7E3E30CDB360CFC6
:1005F000300CC6F6603330D9B660CF33CFCCF6605E
:1006000061B0DB1E60CF30D86CE6C061B0DB1E612C
:100610008F19986CC6C063B19B0E330F0FB078C6AC
:10062000FF7E1F1B061E0F05008930080238024995
:1006300078681400000000000700020100000304B5
:100640000600000000000000000102040810204025
:100650008001020408102001020408102004040490
:10066000040404040402020202020203030303035B
:1006700003000000002300260029000000000025E0
:100680000028002B0000000000240027002A0000A2
:100690003D0911241FBECFEFD8E0DEBFCDBF11E072
:1006A000A0E0B1E0ECE9FEE302C005900D92A634B3
:1006B000B107D9F714E0A6E4B1E001C01D92A13062
:1006C000B107E1F716E0C2E9D6E004C02297FE01C7
:1006D0000E94D41EC039D107C9F70E94E11A0C94B8
:1006E0004C1F0C9400004F925F926F927F92AF92DA
:1006F000BF92CF92DF92EF92FF920F931F93CF930F
:10070000DF9386E791E00E945B1168EF70E082EC76
:1007100091E00E944C1561EF70E086E791E00E9445
:10072000DE1086E791E00E94A20D6AE773E082EC9A
:1007300091E00E944C1510928E0123E030E040E0E1
:1007400050E060E070E0CB010E947E1A6B017C01FA
:100750005B0123E030E040E050E060E070E0CB017E
:100760000E947E1AEB0123E030E040E050E060E0C0
:1007700070E0CB010E947E1A2B013C018B0123E02B
:1007800030E040E050E060E070E0CB010E947E1A73
:10079000AC16BD0679F40617170759F423E030E0CC
:1007A00040E050E060E070E0CB010E947E1AEB0177
:1007B000E6CFE601F601EE0FFF1FEC5FFE4F440CA3
:1007C000551C0190F081E02DE40DF51D81E090E0D5
:1007D00091838083CC0FDD1FCC5FDE4F9B01220F06
:1007E000331FE881F981E20FF31F91838083DF914A
:1007F000CF911F910F91FF90EF90DF90CF90BF901E
:10080000AF907F906F905F904F9008954F925F925E
:100810006F927F92AF92BF92CF92DF92EF92FF9250
:100820000F931F93CF93DF93A4E0B1E0ED91FD917F
:10083000118210821382128215821482178216820C
:1008400081E0AC30B80791F723E030E040E050E0C1
:1008500060E070E0CB010E947E1A6B017C015B01BD
:1008600023E030E040E050E060E070E0CB010E9427
:100870007E1AEB0123E030E040E050E060E070E001
:10088000CB010E947E1A2B013C018B0123E030E05A
:1008900040E050E060E070E0CB010E947E1AAC16B0
:1008A000BD0679F40617170759F423E030E040E05D
:1008B00050E060E070E0CB010E947E1AEB01E6CFD1
:1008C000E601F601EE0FFF1FEC5FFE4F440C551CD6
:1008D0000190F081E02DE40DF51D81E090E0918321
:1008E0008083CC0FDD1FCC5FDE4F9B01220F331FB7
:1008F000E881F981E20FF31F918380831092530105
:1009000010925201DF91CF911F910F91FF90EF90C4
:10091000DF90CF90BF90AF907F906F905F904F909F
:100920000895FC0120E030E0A0E040E050E060816C
:1009300071816115710579F04217530751F0DA01A1
:10094000AA0FBB1FA80FB91F6D937C931182108251
:10095000A1E04F5F5F4F2F5F3F4F3296243031054C
:1009600031F78A2F08958F929F92AF92BF92CF92C4
:10097000DF92EF92FF920F931F93CF93DF93EC01DF
:10098000688179818A819B810C811D81AE80BF80C5
:100990006817790709F064C06115710509F460C032
:1009A0006F5F7F4F79836883882777FD8095982FC5
:1009B0000E94EE1B9B01AC0160E070E080E090E4DF
:1009C0000E94DD1C20E030E040E85FE30E94EF1A67
:1009D00020E030E0A9010E94EF1A0E94BB1B6B01CE
:1009E0007C010A151B05A1F50115110589F10F5FA1
:1009F0001F4FB801882777FD8095982F0E94EE1B26
:100A00009B01AC0160E070E080E090E40E94DD1C9E
:100A10004B015C01B601882777FD8095982F0E94D5
:100A2000EE1B6B017C0120E030E040E85FE3C50194
:100A3000B4010E94EF1A9B01AC01C701B6010E94EC
:100A4000EF1A0E94BB1B1B830A831D821C8257C0A6
:100A50001B830A83BD82AC821F821E82B60154C0F2
:100A6000B8018017910729F50115110511F16F5F84
:100A70007F4F7B836A83882777FD8095982F0E941C
:100A8000EE1B9B01AC0160E070E080E090E40E940E
:100A9000DD1C20E030E040E85FE30E94EF1A20E038
:100AA00030E0A9010E94EF1A0E94BB1BBD82AC82FC
:100AB00026C00A151B0531F50115110529F1B801EC
:100AC0006F5F7F4F7D836C83882777FD8095982F9C
:100AD0000E94EE1B9B01AC0160E070E080E090E4BE
:100AE0000E94DD1C20E030E040E85FE30E94EF1A46
:100AF00020E030E0A9010E94EF1A0E94BB1B1F8278
:100B00001E8202C060E070E0CB01DF91CF911F91A7
:100B10000F91FF90EF90DF90CF90BF90AF909F909C
:100B20008F900895FF920F931F93CF93DF938C01C3
:100B3000EB010E949104F82EC8010E94B304AC019D
:100B400028813981280F391F3983288381E0F110EA
:100B500003C0452B09F480E0DF91CF911F910F91E5
:100B6000FF9008950F931F93CF93DF9324E630E017
:100B700040E050E060E070E0CB010E947E1A6A35F0
:100B800071051CF0C2E0D0E002C0C1E0D0E0E4E0BA
:100B9000F1E020E030E0A191B19184E090E04D914E
:100BA0005D91452B11F42F5F3F4F01970097B9F7E7
:100BB00081E0EC30F80779F72115310559F12F5F05
:100BC0003F4F442737FD4095542F61E070E080E0AF
:100BD00090E00E947E1AE4E0F1E040E050E02191D4
:100BE000319184E090E0D9012E5F3F4F0D911C912F
:100BF0001197012B41F44F5F5F4F4617570719F4C8
:100C0000CD93DC9307C00197009769F781E0EC3042
:100C1000F80729F7DF91CF911F910F910895FF9267
:100C20000F931F93CF93DF9300D0CDB7DEB71A8217
:100C3000198200E010E0F12C8AE491E0E4E0F1E0B8
:100C4000A191B191A00FB11F2D913C91DC012D9389
:100C50003D93CD01B1E0EC30FB0791F7BE016F5F32
:100C60007F4F8AE491E00E949205811103C08F2D8D
:100C7000817001C081E0F82E0E5F1F4F0830110512
:100C8000D9F600E010E0ECE0F1E08AE491E0B29106
:100C9000A291A00FB11F2D913C91DC012D933D93AA
:100CA000CD01B1E0E430FB0791F7BE016F5F7F4FEC
:100CB0008AE491E00E949205811103C08F2D81701A
:100CC00001C081E0F82E0E5F1F4F08301105D9F6E4
:100CD00004E011E0F801A191B1918F01EAE4F1E0A3
:100CE0008D919D918193919321E0E235F207C1F7B7
:100CF000BE016F5F7F4F8AE491E00E9492058111EF
:100D000003C08F2D817001C081E0F82E81E00C308E
:100D1000180701F704E011E0D801ED91FD918D0174
:100D20008681978190934B0180934A0184819581BC
:100D300090934D0180934C018281938190934F0158
:100D400080934E0180819181909351018093500155
:100D5000BE016F5F7F4F8AE491E00E94920581118E
:100D600003C08F2D817001C081E0F82EF1E00C30BE
:100D70001F0791F60F900F90DF91CF911F910F9168
:100D8000FF900895AF92BF92CF92DF92EF92FF92C1
:100D90000F931F93CF93DF931F92CDB7DEB70FE270
:100DA0000093CB0181E08093CC0168EF70E082EC8E
:100DB00091E00E944C156EE071E082EC91E00E949F
:100DC00078196AE773E082EC91E00E944C1512E317
:100DD0001093CB018AE08093CC0165E171E082EC55
:100DE00091E00E94781927E3F22EF092CB0181E185
:100DF0008093CC0160915201709153014AE050E020
:100E000082EC91E00E944A1A1093CB0188E1809312
:100E1000CC016DE171E082EC91E00E947819F092D2
:100E2000CB018FE18093CC01609154017091550109
:100E30004AE050E082EC91E00E944A1A0E940F06BC
:100E400081110BC00093CB0186E28093CC0167E255
:100E500071E082EC91E00E94781994E0E92E91E033
:100E6000F92E34E0CC24C3948CEFD82ED30EA12CD1
:100E7000B12C10E00CE02CE04D2D612F82EC91E0C4
:100E800039830E942313D701ED91FC91EA0DFB1DDC
:100E90008081918139810A9714F484E001C082E055
:100EA000810F8093CB013093CC01608171816B30D5
:100EB000710519F4C092460103C06115710541F036
:100EC0004AE050E082EC91E039830E944A1A39816D
:100ED000155FB2E0AB0EB11C1C3261F6355FE2E08B
:100EE000EE0EF11C303309F0BFCF8091460188230C
:100EF000E9F068EF70E082EC91E00E944C158FE21F
:100F00008093CB0186E28093CC0161E371E082ECB7
:100F100091E00F90DF91CF911F910F91FF90EF9093
:100F2000DF90CF90BF90AF900C9478190F90DF9125
:100F3000CF911F910F91FF90EF90DF90CF90BF90D6
:100F4000AF9008950F931F93CF93DF9386E791E0BF
:100F50000E94AC0E882309F48BC1109249011092B3
:100F600048011092470166E080E891E00E94C109C3
:100F7000882339F06AEE70E086E791E00E94DE1087
:100F80009DC061E080E891E00E94C109882309F4D6
:100F900049C080914601811145C081E090E0909365
:100FA000480180934701C0E0D0E08AE491E0E4E0AA
:100FB000F1E0A191B191AC0FBD1F2D913C91DC01ED
:100FC0002D933D93CD01B1E0EC30FB0791F762E545
:100FD00071E08AE491E00E949205811107C081E0EE
:100FE00090914901911103C080E001C081E080939C
:100FF00049018AE491E044E051E0FA01A191B19104
:10100000AF01FC0121913191CF01AC0FBD1F2D9398
:101010003C93F1E04C305F0781F72296C830D10550
:1010200021F64CC063E080E891E00E94C10988236A
:1010300009F469C080914601811165C082E090E0A9
:101040009093480180934701C0E0D0E08AE491E0AA
:10105000ECE0F1E0B291A291AC0FBD1F2D913C915B
:10106000DC012D933D93CD01B1E0E430FB0791F716
:1010700062E571E08AE491E00E94920581114FC01F
:1010800081E090914901911101C080E08093490174
:101090008AE491E0ECE0F1E0DC012D913D91CD019D
:1010A000B291A291AC0FBD1F2D933C93B1E0E430FF
:1010B000FB0791F72296C830D10541F68091470190
:1010C00090914801009751F020914901222331F07D
:1010D00020914601211102C00E94B2058091520167
:1010E00090915301209154013091550128173907EF
:1010F00024F49093550180935401DF91CF911F9177
:101100000F910C94C20660E080E891E00E94C10952
:10111000882339F080914601882389F002C081E05C
:10112000B5CF62E080E891E00E94C109882309F40C
:1011300040C080914601882309F446C03AC083E04C
:1011400090E09093480180934701C4E0D1E08E0184
:10115000A881B981EAE4F1E08D919D918193919309
:1011600021E0E235F207C1F762E571E08AE491E03F
:101170000E949205811107C081E09091490191116F
:1011800003C080E001C081E0809349012296F8010C
:10119000A081B181EAE4F1E0819191918D939D93D9
:1011A00021E0E235F207C1F781E0CC30D80779F6CB
:1011B00085CF65E080E891E00E94C109882309F4A9
:1011C0007DCF0E9406047ACF84E090E0909348019E
:1011D00080934701C4E0D1E0E881F981868197815D
:1011E00090934B0180934A018481958190934D01A6
:1011F00080934C018281938190934F0180934E01A3
:1012000080819181909351018093500162E571E05A
:101210008AE491E00E949205811107C081E09091DB
:101220004901911103C080E001C081E08093490130
:10123000E991F99180914A0190914B0197838683BE
:1012400080914C0190914D019583848380914E0152
:1012500090914F019383828380915001909151012D
:1012600091838083A1E0CC30DA0709F0B5CF26CF97
:10127000DF91CF911F910F9108951092C5011092A7
:10128000C40182E491E09093C3018093C201089568
:1012900061E08AE00E94B61861E08AE00E947D1851
:1012A0008CB580618CBD8CB580648CBD61E08DE0B7
:1012B0000E947D1861E08BE00C947D18811103C0C1
:1012C0008CB5806202C08CB58F7D8CBD08959CB5B5
:1012D000937F982B9CBD08952CB5982F93702C7FED
:1012E000922B9CBD9DB582FB882780F99E7F982B11
:1012F0009DBD0895FC0188E0808389E0818387E0BB
:10130000828386E0838384E0848382E0858381E135
:1013100086830895DF92EF92FF920F931F93CF93EE
:10132000DF937C01EC0100E010E0DD24DA9462E060
:1013300088810E947D1888810E94EC18F701E00FD7
:10134000F11F892B21F487818F5F878308C08781F4
:10135000882349F08F3F11F4178201C0D78260E0E3
:1013600088810E947D180F5F1F4F2196073011055D
:10137000F1F6DF91CF911F910F91FF90EF90DF90E9
:101380000895FC01E60FF11D81E09781913009F08D
:1013900080E0089521E0FC012083089570E085E05D
:1013A0000C941B17AF92BF92CF92DF92EF92FF92F5
:1013B0000F931F93CF93DF93EC0189819A812FE0E4
:1013C000289F8001299F100D112485E10E94FE169F
:1013D000800F911F24E0969587952A95E1F79A83CF
:1013E00089832881222391F1AC81AD80B12CC12C5D
:1013F000D12CE885F9857F0100E010E06E817F81C6
:101400009B0140E050E08617970728F0BC01E817E1
:10141000F90708F4BF0180E090E01F921F921F922D
:10142000AF930E949A1A6B830F900F900F900F90BA
:1014300070E085E0DF91CF911F910F91FF90EF90C9
:10144000DF90CF90BF90AF900C941B17DF91CF919E
:101450001F910F91FF90EF90DF90CF90BF90AF90D2
:101460000895FC018CE39FE09383828384E0818371
:1014700081E084870895CF93DF93EC018C858F7191
:1014800051F584E10E94FE16BC01882777FD809506
:10149000982F0E94EE1B26EE3FE34EEC50E40E9494
:1014A0007A1C0E94C01B9B017B836A8361157105B6
:1014B00081F084E08983FE0140E0848195812817D2
:1014C000390710F449830AC04F5F32964430A9F7B8
:1014D00002C08FEF89838C858F5F8C87DF91CF91DE
:1014E000089550E0DA01AA0FBB1FA80FB91F1D967F
:1014F0003C911D971E962C911E97E32FF22FE60F1D
:10150000F11DE60FF11D259134915E963C932E93CB
:101510005D97F90125913491FC01E40FF51F278FA8
:10152000632F70E0C90199276817790708F4232F02
:1015300020A3089521E0FC01228324E026A32EE2CB
:1015400035E03687258740E060E00E94710A61E05F
:1015500070E083E00E941B17E1EBF0E08081887F60
:1015600081608083F89410928000E1E8F0E01082BE
:10157000109285001092840088E191E09093890098
:1015800080938800808188608083808181608083EF
:10159000EFE6F0E0808182608083789408950F9375
:1015A000362F642F402F3230B9F038F4332379F0DE
:1015B0003130E9F40F910C94710A333099F03430E2
:1015C000B1F4FC01E00FF11D638F248F10C0FC010A
:1015D000E00FF11D648B0BC0FC01E00FF11D678B68
:1015E000208F05C0FC01E00FF11D618F228F0F914C
:1015F00008958091FE01882319F08091FB0101C0BC
:1016000080E08093B4000895FC0161110DC0158A3B
:10161000138A12A211A2168A1092FB011092FC01E9
:101620001092FE010C94F90A08951F93CF93DF9353
:10163000EC01162F0E94040BC10FD11D1982DF91FE
:10164000CF911F910895EF92FF920F931F93CF9325
:10165000DF931F92CDB7DEB77C018B01642F4983E6
:101660000E94150B4981E42FF0E0DF01AA0FBB1F98
:10167000AE0DBF1D1C961C930E931B97DF01189691
:10168000AA0FBB1FAE0DBF1D1D921C92EE0DFF1DBC
:1016900081E0818389E0848B178A118E138E0F90ED
:1016A000DF91CF911F910F91FF90EF9008950F93CD
:1016B0001F93CF93DF93462F062F10E0EC01C00F4E
:1016C000D11F2881222391F1298121112FC02F813F
:1016D000D801AA0FBB1FA80FB91F15965C911597CB
:1016E00016963C91E52FF32FE20FF11DE20FF11D4D
:1016F000259134912F3F5FEF350711F4188216C002
:101700003A87F8013496EE0FFF1FE80FF91F3327D1
:10171000220F331F0190F081E02DE20FF31F65913E
:1017200074910E94230B8F818F5F8F83DF91CF9104
:101730001F910F91089560E00C94570B60E00C949A
:10174000150B6F927F928F929F92AF92BF92CF9222
:10175000DF92EF92FF920F931F93CF93DF936C0171
:10176000162FA62EB12CEC01CA0DDB1D8981882312
:1017700009F492C08B8981118FC04501880C991C96
:101780007601E80CF91CD7011B964D915C911C97D2
:1017900050968D919C915197880F991F840F951F9A
:1017A000FC012591349121153105E1F48F858130BB
:1017B00031F451961C921E925097FA0111C0198271
:1017C00088818823B1F0C6010E94570BF7018089F8
:1017D0009189880F991F0384F485E02DE80FF91F84
:1017E000259134913601680C791CFBE06F0E711C59
:1017F00011C0C601DF91CF911F910F91FF90EF9023
:10180000DF90CF90BF90AF909F908F907F906F9020
:101810000C94040BB901769567957695679520FF32
:1018200025C0A90176E0569547957A95E1F7232FD3
:1018300026952695269520514F716F70012FC60170
:101840000E94CF0AD70150968D919C915197019695
:1018500051969C938E935097880F991FD301ED91C9
:10186000FC91E80FF91F25913491D4CF6F736A8BE7
:101870003B8B1BA2F601E80DF91D12A211A281E01B
:101880008D8BF501E250FE4F80831E8AF70180891F
:1018900091890196918B808BDF91CF911F910F9150
:1018A000FF90EF90DF90CF90BF90AF909F908F9080
:1018B0007F906F90089560E00C94A10BEF92FF92DF
:1018C0000F931F93CF93DF937C01062F10E0EC0161
:1018D000C00FD11F8D89882309F4C5C08B89811160
:1018E00009C0C701DF91CF911F910F91FF90EF9039
:1018F0000C94040B81508B8B8BA1811148C0D801B3
:10190000AA0FBB1FAE0DBF1D91968D919C91929712
:1019100001969C01220F331F5D96ED91FC915E971D
:10192000E20FF31F25913491422F47704CA3A90178
:1019300073E0569547957A95E1F7FA01F695E795A4
:10194000232F269526952DA33E2F3F73F701228145
:10195000329FE02D1124EBA3F801E650FE4F4170B9
:10196000408392969C938E9391972F8D30E08217AF
:10197000930768F088A1882339F0281B31099296D3
:101980003C932E93919703C0C7010E94040B8BA137
:1019900081508BA33E893F5F3E8B2A894DA1420F28
:1019A0008A85480F698D662359F070E0832F992747
:1019B00087FD90950E94721E8A8D869F400D11248E
:1019C000842F992787FD9095849664E270E00E94A9
:1019D000721EFC014C896F89662369F0772767FDC9
:1019E0007095832F992787FD90950E94721E888D90
:1019F000869F400D11246B8D662381F0832F9927DC
:101A000087FD909570E00E94721ECB0162E070E04D
:101A10000E94721E9C8D989F400D11242F3321F03F
:101A20004A300CF049E047FD40E0F894E450FB4FA9
:101A3000E491D801A350BE4FEC939EA1F70183819E
:101A4000989F802D11249CA1899F802D1124849F13
:101A5000402D1124F801E450FE4F4083F801E55079
:101A6000FE4F40837894DF91CF911F910F91FF90AB
:101A7000EF90089560E00C945E0C6091FC01662389
:101A800029F18091FF018F5F8093FF019091FD010B
:101A90008917E0F081E09091FE01911180E0809340
:101AA000FE011092FF018091FA01882369F0909164
:101AB0000C0183E4989F802D1124895B80930C0195
:101AC0000E94521E9093FB010C94F90A08951F92F4
:101AD0000F920FB60F9211242F933F934F935F9362
:101AE0006F937F938F939F93AF93BF93EF93FF93E6
:101AF0000E943D0DFF91EF91BF91AF919F918F910A
:101B00007F916F915F914F913F912F910F900FBEF9
:101B10000F901F90189540E066E275E00C94230B3F
:101B200040E060E275E00C94230BFC01862F9927BE
:101B300087FD9095648170E06F5F7F4F0E94721EF9
:101B400083830895EF92FF920F931F93CF93DF93B8
:101B50008C01FC01E28CF38C0E94D017609570958B
:101B600080959095E69EE001E79ED00DF69ED00D03
:101B70001124F801018112810E94D017C801860F3B
:101B8000971F8C0F9D1FDF91CF911F910F91FF9099
:101B9000EF900C94521A8F929F92AF92BF92CF9275
:101BA000DF92EF92FF920F931F93CF93DF93EC019D
:101BB0005C0183E8A80EB11CD5018C91882309F43F
:101BC0004FC08C3018F41CE0181B01C010E0FE015F
:101BD000EC5AFF4F81E080836E01BCE4CB0ED11C38
:101BE00060E0C6010E9434124E01E1E58E0E911CA8
:101BF000D4018C9103E0080F9DE2F92E4F2D481B74
:101C0000410F23E0E22E24E560E0C6010E9491141A
:101C100061E0C6010E943412F401808103E0080FE4
:101C20004F2D481B410F24E560E0C6010E9431148E
:101C3000FE01EB5AFF4F84E08083FE01EA5AFF4F1A
:101C4000D4018C91181B115D1083CF57DF4F688131
:101C50007981C6010E945319F501808181508083EA
:101C6000DF91CF911F910F91FF90EF90DF90CF9078
:101C7000BF90AF909F908F9008950F931F93CF9335
:101C8000DF93EC018C01045B1F4F40E061E0C80171
:101C90000E943812FE01EB5AFF4FDE01A05BBF4FDE
:101CA00085E59C91891B8083FE01EA5AFF4F1082D3
:101CB000698D613059F128F0888D653008F03DC09C
:101CC00038C0CE0185960E949E0B60E0CE010E9436
:101CD000CE09C8010E94DE1167E875E0C8010E94C4
:101CE0005319C8010E94EF1183B7817F846083BFBD
:101CF00083B7816083BF83B7816083BF889583B7D3
:101D00008E7F83BF83B78E7F83BF21C0C259DF4FD1
:101D1000488159816A817B814F70552766277727D3
:101D2000483051056105710510F467E009C068E7A6
:101D300007C0882361F06B5F03C0882341F06FE226
:101D4000C801DF91CF911F910F910C947A19DF9107
:101D5000CF911F910F9108958F929F92AF92BF9252
:101D6000EF92FF920F931F93CF93DF93EC017C01CF
:101D70000DE7E00EF11CF70180809180A280B38016
:101D80000E94C41795018401061B170B280B390B01
:101D9000B901A8015E011CE7A10EB11CF50180810B
:101DA00090E0A0E0B0E08E0108581F4F841795071F
:101DB000A607B70748F4F80180819181A281B38119
:101DC000892B8A2B8B2B99F5F80180819181A28137
:101DD000B381892B8A2B8B2B41F5CE010E94CB0D31
:101DE000CE010E943D0E7E01FCE4EF0EF11CC70106
:101DF0000E94EF11FE01EE5AFF4F8081811103C056
:101E0000C7010E94DE110E94D017F8016083718320
:101E100082839383FE01EE58FF4FCC58DF4F288119
:101E20003981621B730B7183608380E040C00E9424
:101E3000C417F5012081620F711D811D911DF701ED
:101E40006083718382839383FE01E259FF4F408157
:101E50005181628173814F5F5F4F6F4F7F4F40832E
:101E6000518362837383F80110821182128213827C
:101E70000E94D017FE01EC58FF4F6083718382836C
:101E80009383CE010E94D209CE010A960E948A094C
:101E9000CE0148960E943B0AA596CE010E949B0B5C
:101EA000CE010E945B0CCE010E943A0D81E0DF91D1
:101EB000CF911F910F91FF90EF90BF90AF909F90A7
:101EC0008F9008950F931F93CF93DF938C01EC01B4
:101ED000C45BDF4FCE010E94DE116FE575E0CE01DD
:101EE0000E945319CE010E94EF1183E00E946C09F9
:101EF00087E391E0EEEFFFE30995F801EE5AFF4F1B
:101F000010826AE375E0CE010E949519CE010E940D
:101F1000EF11065F1F4FC8010E948A0964E0C801E3
:101F20000E94C109811107C062E370E080E090E087
:101F30000E94F317F0CFDF91CF911F910F91089579
:101F40002F923F924F925F926F927F928F929F92C9
:101F5000AF92BF92CF92DF92EF92FF920F931F93B7
:101F6000CF93DF93CDB7DEB72A970FB6F894DEBFD5
:101F70000FBECDBF9A8789871B012A013C018DE6E0
:101F8000680E711CF3018081882309F4FEC0E98585
:101F9000FA85ED5AFF4F1082E985FA85EE5AFF4F18
:101FA0001082E985FA85108E8F01045B1F4F61E076
:101FB000C8010E943412F101F491FF83C984DA84CC
:101FC00085E5C80ED11CE984FA8496E5E90EF11C7A
:101FD000E985FA85E05BFF4FFA83E98389859A8575
:101FE00082599F4F9E838D83E985FA85EF5AFF4F73
:101FF000FC83EB8389849A84FAE08F0E911CA98478
:10200000BA8485E2A80EB11C89859A850E94AC0E1F
:102010008823D1F39F81992321F0EB81FC815081AA
:1020200001C050E027EB35E040E060E0C801588790
:102030000E94CA1458854114510439F04CE0450FF0
:10204000920160E0C8010E94CA14F60110828CE07F
:10205000F7018083B101C8010E945319E981FA8117
:102060009081892F880F890F81958D5AF601808381
:10207000EB81FC819081892F880F890F8195835D89
:10208000F7018083ED81FE81808184FF03C063EBD3
:1020900075E002C06FEA75E0C8010E949519E981F8
:1020A000FA819081892F880F890F81958D5AF601C9
:1020B0008083F70180818F5F8083E985FA8580A521
:1020C000882319F06BEA75E002C067EA75E0C80181
:1020D0000E949519E981FA819081892F880F890FD3
:1020E00081958D5AF6018083F70180818F5F80830F
:1020F00063EA75E0C8010E94951965E0C4010E9479
:10210000C109882351F0E985FA8560A56F5FC50193
:102110000E94950DC5010E94900D64E0C4010E94CB
:10212000C109811113C0F3012081822F90E0A0E04A
:10213000B0E0ED81FE814081518162817381481759
:1021400059076A077B07A8F02F3F99F08FEFF3013B
:10215000808309851A850B5D1F4F60E0C8010E94CE
:10216000150BC8010E948B0D81E0E985FA85808FEF
:102170000CC066E0C4010E94C109882309F444CF61
:1021800089859A850E94620F2FCF2A960FB6F89400
:10219000DEBF0FBECDBFDF91CF911F910F91FF909A
:1021A000EF90DF90CF90BF90AF909F908F907F90F7
:1021B0006F905F904F903F902F90089540E050E0D7
:1021C0000C94A00FE0E8FFE62591349181E02130E6
:1021D000304C09F080E00895CF93DF93EC010E942A
:1021E000E2109E01295A3F4FDE01A359BF4F8823B9
:1021F00009F43CC0E6E9FFE68491F9018083E7E950
:10220000FFE6E491EC83E8E9FFE6E491ED83E9E998
:10221000FFE6859194919F838E83EBE9FFE685919C
:10222000949199878887EDE9FFE6E491E9A7EEE9C3
:10223000FFE6E491E8A7EFE9FFE6E491EC93E0EA3A
:10224000FFE6859194919D8F8C8FE2EAFFE6859160
:1022500094919F8F8E8FE4EAFFE68591949199A3E4
:1022600088A3E6EAFFE68591949120C08CE3F9010A
:1022700080831C822FEF2D8380E293E09F838E83E7
:1022800084ED93E09987888781E089A788A72C93BC
:102290008CEA9DE09D8F8C8F8EED9DE09F8F8E8FC1
:1022A00084E79EE099A388A38CE39FE09BA38AA385
:1022B000DF91CF910895CF92DF92EF920F93CF935A
:1022C000DF93EC01FC01E458FF4F82E38083FE01C1
:1022D000E858FF4F41E050E060E070E040835183F8
:1022E00062837383FE01E359FF4F8FEF8083CE013A
:1022F0000E94EC10CE010E94CA096FEFCE010E942D
:10230000CE096E018AE0C80ED11CC6010E947A096E
:10231000C6010E948A09CE0148960E94310A0EE049
:10232000E02E0FE020E14BE06DE0CE01845B9F4F9B
:102330000E946015A596CE010E949A0A65E0C6012A
:102340000E94C109882351F060E0CE01DF91CF9156
:102350000F91EF90DF90CF900C94950D40E067E2E5
:1023600076E0CE01DF91CF910F91EF90DF90CF908B
:102370000C94230B8EBD0DB407FEFDCF8EB50895D2
:102380001F93CF93DF93EC01162FF89460E08E85B6
:102390000E94B6188F8518161CF460E00E94B618CB
:1023A000812F0E94BA118F8518161CF461E00E94DB
:1023B000B6187894DF91CF911F91089528EF31E0FE
:1023C000E0E0F2E0DF01A9011D9241505040E1F749
:1023D000DC0119961C9219971A961C920895DF92A7
:1023E000EF92FF920F931F93CF93DF93EC0180E066
:1023F000E82E82E0F82ED12C6D2D6064CE010E9473
:10240000C01160E8CE010E94C01161E08E850E947B
:10241000B6188F8518161CF460E00E94B61800E00C
:1024200010E0F701E00FF11F80810E94BA110F5FE9
:102430001F4F04351105A9F78F8518161CF461E0AC
:102440000E94B618D39484E5E80EF11C86E0D812F9
:10245000D3CF60E4CE01DF91CF911F910F91FF9018
:10246000EF90DF900C94C011FC01678F60A308957A
:10247000FC01678F40A30895643590F5403380F5E3
:10248000FC01978D842F859585958595E62FFF27EF
:10249000E7FDF0954770992389F094E58902E00DF6
:1024A000F11D1124E050FE4F81E090E0042E01C0A8
:1024B000880F0A94EAF79081982B11C094E589025D
:1024C000E00DF11D1124E050FE4F81E090E0042E5C
:1024D00001C0880F0A94EAF7809590819823908331
:1024E0000895AF92BF92CF92DF92EF92FF920F9337
:1024F0001F93CF93DF93EC01162FF42EE22EA02F23
:10250000BB27A7FDB095A41BB10947FDB395B7FF45
:1025100003C0B195A195B109EE2DFF27E7FDF09518
:10252000E11BF10917FDF395F7FF03C0F195E19564
:10253000F109BB24B394EA17FB0714F0B12C06C0D1
:102540008E2DE02E082F812F1F2DF82EE11634F44A
:102550008F2DF02E082F812F1E2DE82ECE2CC11A84
:10256000E02FFF27E7FDF095EF19F109F7FCF39550
:10257000F7FF03C0F195E195F109AE2EDC2CC7FE03
:1025800003C0DD24D394DC0CD594F01614F401E0E0
:102590000FC00FEF0DC0BB2071F0412F6F2DCE018A
:1025A0000E943C12DA18D7FE02C0F00EDC0C1F5F4E
:1025B000E1168CF703C04F2D612FF1CFDF91CF9142
:1025C0001F910F91FF90EF90DF90CF90BF90AF9051
:1025D00008950F93022F0150040F262F0E947112AD
:1025E0000F910895DF92EF92FF920F931F93CF9375
:1025F000DF937C01D42E162FC22FDD27C7FDD09587
:10260000C60FD11D67FDDA95812F992787FD90951B
:102610008C179D0744F4202F4D2D612FC7010E9478
:10262000E9121F5FF1CFDF91CF911F910F91FF90C2
:10263000EF90DF9008950F932150260F042F0E94F2
:1026400071120F910895EF92FF920F931F93CF9302
:10265000DF93EC01F62E142FE22E0E941B134FEF96
:10266000400F410F2E2D6F2DCE010E941B13202FE6
:10267000412F6F2DCE010E94E9126FEF6E0D6F0D8D
:10268000202F412FCE01DF91CF911F910F91FF900D
:10269000EF900C94E9128F929F92AF92BF92CF92DB
:1026A000DF92EF92FF920F931F93CF93DF93EC0192
:1026B000E62ED42E122FCC24C394C21AB22EB1947B
:1026C000BB0CF12C802F8470A82E802F8270982E46
:1026D000802F8870882E0170F1160CF04DC0C7FC59
:1026E00004C01150B394B394CB0CF3948F2D880F86
:1026F0008F5FC80EAA2071F0412F4D0D6F2D6E0D0A
:10270000CE010E943C124F2D4D0D612F6E0DCE015A
:102710000E943C12992071F04D2D411B6F2D6E0DC2
:10272000CE010E943C124D2D4F19612F6E0DCE012E
:102730000E943C12882071F04F2D4D0D6E2D611BB3
:10274000CE010E943C12412F4D0D6E2D6F19CE010E
:102750000E943C12002309F4BFCF4D2D4F196E2D5E
:10276000611BCE010E943C124D2D411B6E2D6F1935
:10277000CE010E943C12B0CFDF91CF911F910F91FB
:10278000FF90EF90DF90CF90BF90AF909F908F9091
:1027900008958F929F92AF92BF92CF92DF92EF9265
:1027A000FF920F931F93CF93DF93EC01B62EA42ECD
:1027B000122FDD24D394D21AC22EC194CC0CFF2444
:1027C000F394802F8170882E992493949E0C02702C
:1027D0008FEF8F0D8117C4F5D7FC04C01150C3943F
:1027E000C394DC0C8F2D880F8F5FD80E882099F052
:1027F000212F220F290D4A2D411B6F2D6B0DCE016C
:102800000E94E91223E02E0D4A2D4F19612F6B0D06
:10281000CE010E94E912002399F0212F220F290DE9
:102820004A2D411B6B2D6F19CE010E94E91223E046
:102830002E0D4A2D4F196B2D611BCE010E94E912FE
:10284000F394E394E394C4CFDF91CF911F910F9160
:10285000FF90EF90DF90CF90BF90AF909F908F90C0
:1028600008959F92AF92BF92CF92DF92EF92FF9224
:102870000F931F93CF93DF93EC01B62EF42EA22E6D
:10288000DE2CD194DD0C9D2C920E1E2D160F292DC1
:10289000612F0E941B13CC24CA94C00ECF0C292D8B
:1028A0004C2D612FCE010E941B13D00EFE0C2D2D3E
:1028B0004F2D6B2DCE010E94E912BA0C6FEF6B0DFC
:1028C0002D2D4F2DCE010E94E91201E02E2D4F2D0E
:1028D000612FCE010E944B13DE2CD094DB0C02E062
:1028E0002E2D4F2D6D2DCE010E944B13CE1804E0DE
:1028F0002E2D4C2D6D2DCE010E944B1308E02E2D58
:102900004C2D612FCE010E944B13DF91CF911F916F
:102910000F91FF90EF90DF90CF90BF90AF909F907E
:102920000895AF92BF92CF92DF92EF92FF920F93F2
:102930001F93CF93DF93EC01A62EC42EB22EF02E60
:102940001E2DE194EE0CD12ED60E2E2D2B0D6D2DBD
:102950000E94F212FA94FE0CC10E6FEF6A0D6B0D1D
:10296000611BEF2C01E0212F4C2DCE010E94C913D9
:1029700002E0212F4C2D6D2DCE010E94C913DF9155
:10298000CF911F910F91FF90EF90DF90CF90BF906C
:10299000AF9008952F923F924F925F926F927F92E5
:1029A0008F929F92AF92BF92CF92DF92EF92FF925F
:1029B0000F931F93CF93DF931F92CDB7DEB78C0198
:1029C000862E942EF9017490319664907901F2E08C
:1029D000EF0EF11C872D992787FD9095DC01179646
:1029E000B7FF02C0DC011E966D0193E0D594C79439
:1029F0009A95E1F7212C312C512C20E8A22EB12CF4
:102A00005614B4F520E0452C490C27156CF5822F9F
:102A100027FF02C087E0820F859585958595F10196
:102A2000E80FF11D87FDFA95EE0DFF1DE491F0E032
:102A3000A22FA778A7FF03C0A150A86FAF5FC50161
:102A400002C095958795AA95E2F7DC01AE23BF23D6
:102A5000AB2B41F0442D622F680DC80129830E94E1
:102A60003C1229812F5FD1CF53942C0C3D1CC8CF31
:102A70000F90DF91CF911F910F91FF90EF90DF901A
:102A8000CF90BF90AF909F908F907F906F905F900E
:102A90004F903F902F900895DC01FB0184918F5F50
:102AA00014968C9314973196E491EF5F1596EC93FE
:102AB00015976E5F7F4F5E967C936E935D9708953A
:102AC000EF920F93CF93DF93EC014D876C872E87A6
:102AD000E88A0F8781E088878F8F18A28F836AE743
:102AE00073E0CE010E944C150E94480981E00E94CB
:102AF0005E0985E00E946C098CE00E94670961E034
:102B00008D850E947D1861E08C850E947D1861E0B2
:102B10008E850E947D18888918161CF461E00E9439
:102B20007D188F8518161CF461E00E947D18888935
:102B300018166CF460E00E94B6186AE070E080E05D
:102B400090E00E94F31761E088890E94B6188C8596
:102B5000992787FD9095FC01E35AF94FE491F0E045
:102B6000EE0FFF1FE558F94F259134913C8B2B8BCD
:102B7000FC01E75BF94F84918A8F8D85992787FD4A
:102B80009095FC01E35AF94FE491F0E0EE0FFF1F3E
:102B9000E558F94F259134913A8B298BFC01E75B7D
:102BA000F94F8491898F8F85992787FD9095FC0136
:102BB000E35AF94FE491F0E0EE0FFF1FE558F94FAB
:102BC000259134913E8B2D8BFC01E75BF94F84916D
:102BD0008B8F8E85992787FD9095FC01E35AF94FDD
:102BE000E491F0E0EE0FFF1FE558F94F2591349185
:102BF000388F2F8BFC01E75BF94F84918C8F61E25A
:102C0000CE010E94C01164E1CE010E94C0118B85EB
:102C100087FF02C08FE78B876B856068CE010E94BB
:102C2000C01160E2CE010E94C0116CE0CE010E9492
:102C3000C011CE01DF91CF910F91EF900C94EF1165
:102C40006F927F928F929F92AF92BF92CF92DF92BC
:102C5000EF92FF920F931F93CF93DF93EC01162F08
:102C6000F42EB02EEF8C64350CF081C08FE2841707
:102C70000CF47DC0EC81F0E031970E9FC0010F9FF6
:102C8000900D1124860F911D67FD9A95181619064F
:102C90000CF06DC08D81809FC0011124840F911DA7
:102CA00047FD9A95181619060CF061C0A62E962EAF
:102CB000C22ED12C8A2D811B992787FD90952C81BE
:102CC00030E0821793070CF051C021503109821770
:102CD000930779F0C29ED001C39EB00DD29EB00D75
:102CE0001124A80FB91FED8DFE8DEA0FFB1F749004
:102CF00001C0712C8F2C6F2C282D2F19332727FD05
:102D000030958D8190E0281739076CF570FE11C061
:102D100081E0B81206C0482D6A2DCE010E943C12F7
:102D20001EC00B2D2B2D462D692DCE010E94F212B7
:102D300016C088A19F8D891791F08F8F81E0B812FE
:102D400006C0482D6A2DCE010E943C1207C00B2DF3
:102D50002B2D462D692DCE010E94F212EF8E769416
:102D60006B0C8394C9CF9B0CA394A4CFEF8EDF91FF
:102D7000CF911F910F91FF90EF90DF90CF90BF9078
:102D8000AF909F908F907F906F9008950F93CF9307
:102D9000DF93EC01262F6A3039F42D8198858A85DE
:102DA000299F800D112422C06D3011F108854A85BC
:102DB00069850E94201648855C812985549F200DD5
:102DC000112429878F81882399F0332727FD309597
:102DD00084E590E0459F801991091124821793079B
:102DE0003CF49D818A85499F800D11248A8719862C
:102DF00081E090E0DF91CF910F9108958E3008F03F
:102E00008E50877020910D0190E4299F900111242C
:102E1000822B80937C0080917A00806480937A007A
:102E200080917A0086FDFCCF809178002091790016
:102E300090E0922B08951F93CF93DF93182FEB010F
:102E400061E00E947D18209711F460E004C0CF3F3C
:102E5000D10539F461E0812FDF91CF911F910C945E
:102E6000B618E12FF0E0EB5CF94FE491E330F9F0B4
:102E700048F4E130B9F0E230A1F584B5806284BD58
:102E8000C8BD34C0E630E9F0E73019F1E43049F567
:102E900080918000806280938000D0938B00C093EB
:102EA0008A0024C084B5806884BDC7BD1FC08091DE
:102EB0008000806880938000D0938900C093880050
:102EC00015C08091B00080688093B000C093B300BB
:102ED0000DC08091B00080628093B000C093B400B8
:102EE00005C0C038D1050CF0B5CFAFCFDF91CF9181
:102EF0001F9108951F920F920FB60F9211242F93D6
:102F00003F938F939F93AF93BF938091F9039091D9
:102F1000FA03A091FB03B091FC033091F80323E086
:102F2000230F2D3720F40196A11DB11D05C026E801
:102F3000230F0296A11DB11D2093F8038093F9037E
:102F40009093FA03A093FB03B093FC038091FD03DD
:102F50009091FE03A091FF03B09100040196A11D82
:102F6000B11D8093FD039093FE03A093FF03B093E4
:102F70000004BF91AF919F918F913F912F910F903E
:102F80000FBE0F901F9018952FB7F8946091F9031A
:102F90007091FA038091FB039091FC032FBF089579
:102FA0003FB7F8948091FD039091FE03A091FF0339
:102FB000B091000426B5A89B05C02F3F19F00196DB
:102FC000A11DB11D3FBF6627782F892F9A2F620F51
:102FD000711D811D911D42E0660F771F881F991F8B
:102FE0004A95D1F70895CF92DF92EF92FF92CF9357
:102FF000DF936B017C010E94D017EB01C114D10457
:10300000E104F10479F00E94D0176C1B7D0B683E3F
:103010007340A0F381E0C81AD108E108F108C85153
:10302000DC4FECCFDF91CF91FF90EF90DF90CF900E
:103030000895789484B5826084BD84B5816084BD30
:1030400085B5826085BD85B5816085BDEEE6F0E021
:10305000808181608083E1E8F0E01082808182607D
:103060008083808181608083E0E8F0E080818160FE
:103070008083E1EBF0E0808184608083E0EBF0E02E
:10308000808181608083EAE7F0E0808184608083D2
:10309000808182608083808181608083808180687C
:1030A00080831092C1000895833081F028F481302C
:1030B00099F08230A1F008958630A9F08730B9F0F8
:1030C0008430D1F4809180008F7D03C08091800096
:1030D0008F7780938000089584B58F7702C084B580
:1030E0008F7D84BD08958091B0008F7703C080915B
:1030F000B0008F7D8093B0000895CF93DF9390E070
:10310000FC01E75BF94F2491FC01E35AF94F8491EC
:10311000882349F190E0880F991FFC01EB57F94F84
:10312000A591B4918558994FFC01C591D4919FB751
:10313000611108C0F8948C91209582238C9388812A
:1031400082230AC0623051F4F8948C91322F30956A
:1031500083238C938881822B888304C0F8948C917C
:10316000822B8C939FBFDF91CF9108950F931F9374
:10317000CF93DF931F92CDB7DEB7282F30E0F90150
:10318000EB5CF94F8491F901E75BF94F1491F90178
:10319000E35AF94F04910023C9F0882321F0698391
:1031A0000E9454186981E02FF0E0EE0FFF1FE558F0
:1031B000F94FA591B4919FB7F8948C91611103C018
:1031C0001095812301C0812B8C939FBF0F90DF91BD
:1031D000CF911F910F910895CF93DF93282F30E067
:1031E000F901EB5CF94F8491F901E75BF94FD49158
:1031F000F901E35AF94FC491CC2391F081110E9457
:103200005418EC2FF0E0EE0FFF1FEF58F94FA59187
:10321000B4912C912D2381E090E021F480E002C054
:1032200080E090E0DF91CF910895CF92DF92EF920E
:10323000FF920F931F93CF93DF936C017A01EB0101
:10324000E60EF71E00E010E0CE15DF0561F0699193
:10325000D601ED91FC910190F081E02DC601099518
:10326000080F191FF1CFC801DF91CF911F910F9166
:10327000FF90EF90DF90CF9008956115710581F078
:10328000DB010D900020E9F7AD0141505109461BCB
:10329000570BDC01ED91FC910280F381E02D099444
:1032A00080E090E00895EF92FF920F931F93CF93E9
:1032B000DF938C01FB01C0E0D0E064917F018FEFD0
:1032C000E81AF80A662361F0D801ED91FC910190AB
:1032D000F081E02DC8010995C80FD91FF701EDCF86
:1032E000CE01DF91CF911F910F91FF90EF90089544
:1032F0000C943D19DC01ED91FC910190F081E02DE1
:1033000009940F931F93CF93DF93EC016DE00E941C
:103310007A198C016AE0CE010E947A19800F911F00
:10332000DF91CF911F910F9108950F931F93CF932A
:10333000DF93EC010E9453198C01CE010E94811988
:10334000800F911FDF91CF911F910F9108958F9260
:103350009F92AF92BF92CF92DF92EF92FF920F9324
:103360001F93CF93DF93CDB7DEB7A1970FB6F89435
:10337000DEBF0FBECDBF7C01C42EE52FCB01D22E08
:1033800019A221E02D1510F02AE0D22E8E010F5D3A
:103390001F4F8D2C912CA12CB12C6C2D7E2FA501B3
:1033A00094010E94861E8C2DD29E801911240150FA
:1033B00011098A3014F4805D01C0895CF8018083B2
:1033C000211531054105510521F0C22EE32FCA0117
:1033D000E4CFB801C7010E943D19A1960FB6F89439
:1033E000DEBF0FBECDBFDF91CF911F910F91FF9038
:1033F000EF90DF90CF90BF90AF909F908F90089507
:10340000CF92DF92EF92FF920F931F93CF93DF93B0
:10341000EC016A017B012115310579F4E881F9811C
:103420000190F081E02D642FDF91CF911F910F91DA
:10343000FF90EF90DF90CF9009942A303105E9F4A6
:1034400077FF1AC06DE20E947A198C014427552734
:10345000BA014C195D096E097F092AE0CE010E946C
:10346000A719800F911FDF91CF911F910F91FF90AE
:10347000EF90DF90CF9008952AE0B701A601CE012A
:10348000DF91CF911F910F91FF90EF90DF90CF9040
:103490000C94A7199A01AB01662757FD6095762F0A
:1034A0000C94001A009729F0BC0180E090E00C9485
:1034B0003B1F0895CF93DF9300D000D0CDB7DEB788
:1034C0009B01AC01611571058105910569F0698366
:1034D0003A834B835C830E94361F29813A814B815A
:1034E0005C810E94A81E03C060E070E0CB010F90D9
:1034F0000F900F900F90DF91CF910895CF92DF92B0
:10350000EF92FF926B017C016217730784079507A6
:1035100064F4CA01B9016C197D098E099F090E94E2
:103520005A1A6C0D7D1D8E1D9F1DFF90EF90DF9030
:10353000CF9008954F925F926F927F92AF92BF9219
:10354000CF92DF92EF92FF920F931F93CF93DF936F
:10355000CDB7DEB729013A01621B730B840B950BC3
:1035600029893A894B895C892A193B094C095D09EB
:10357000298B3A8B4B8B5C8B9B01AC0169897A89D7
:103580008B899C890E94421EE418F50806091709D8
:10359000A80197010E94A81E2A0D3B1D4C1D5D1D10
:1035A000CA01B901DF91CF911F910F91FF90EF9068
:1035B000DF90CF90BF90AF907F906F905F904F90D3
:1035C00008950E9419180E947303C0E0D0E00E9481
:1035D000A2072097E1F30E940000F9CF5058BB27C3
:1035E000AA270ED04DC13ED130F043D120F031F4A6
:1035F0009F3F11F41EF433C10EF4E095E7FB29C19F
:10360000E92F4FD180F3BA17620773078407950734
:1036100018F071F49EF567C10EF4E0950B2EBA2FE9
:10362000A02D0B01B90190010C01CA01A0011124C8
:10363000FF27591B99F0593F50F4503E68F11A1674
:10364000F040A22F232F342F4427585FF3CF469505
:1036500037952795A795F0405395C9F77EF41F1627
:10366000BA0B620B730B840BBAF09150A1F0FF0FF1
:10367000BB1F661F771F881FC2F70EC0BA0F621FDD
:10368000731F841F48F4879577956795B795F795CD
:103690009E3F08F0B3CF9395880F08F09927EE0F5F
:1036A0009795879508950CD0EBC0E3D040F0DAD021
:1036B00030F021F45F3F19F0CCC0511115C1CFC0DB
:1036C000F0D098F39923C9F35523B1F3951B550B0B
:1036D000BB27AA2762177307840738F09F5F5F4FE5
:1036E000220F331F441FAA1FA9F333D00E2E3AF026
:1036F000E0E830D091505040E695001CCAF729D040
:10370000FE2F27D0660F771F881FBB1F261737078E
:103710004807AB07B0E809F0BB0B802DBF01FF27BE
:1037200093585F4F2AF09E3F510568F092C0DCC06D
:103730005F3FECF3983EDCF3869577956795B795F8
:10374000F7959F5FC9F7880F911D9695879597F913
:103750000895E1E0660F771F881FBB1F621773078C
:103760008407BA0720F0621B730B840BBA0BEE1FA1
:1037700088F7E095089504D06894B111B5C0089514
:1037800098D088F09F5790F0B92F9927B751A0F0A3
:10379000D1F0660F771F881F991F1AF0BA95C9F7E5
:1037A00012C0B13081F09FD0B1E008959CC0672F66
:1037B000782F8827B85F39F0B93FCCF38695779595
:1037C0006795B395D9F73EF490958095709561957E
:1037D0007F4F8F4F9F4F0895E89409C097FB3EF4A9
:1037E00090958095709561957F4F8F4F9F4F99234E
:1037F000A9F0F92F96E9BB279395F69587957795CC
:103800006795B795F111F8CFFAF4BB0F11F460FF8B
:103810001BC06F5F7F4F8F4F9F4F16C0882311F0E3
:1038200096E911C0772321F09EE8872F762F05C0F7
:10383000662371F096E8862F70E060E02AF09A9592
:10384000660F771F881FDAF7880F9695879597F987
:10385000089597F99F6780E870E060E008959FEF12
:1038600080EC089500240A94161617061806090617
:10387000089500240A9412161306140605060895E6
:10388000092E0394000C11F4882352F0BB0F40F46E
:10389000BF2B11F460FF04C06F5F7F4F8F4F9F4FAE
:1038A000089557FD9058440F551F59F05F3F71F030
:1038B0004795880F97FB991F61F09F3F79F0879597
:1038C0000895121613061406551FF2CF4695F1DF20
:1038D00008C0161617061806991FF1CF86957105B0
:1038E000610508940895E894BB2766277727CB01E4
:1038F00097F908950BD0C4CFB5DF28F0BADF18F0E0
:10390000952309F0A6CFABCF1124EECFCADFA0F3E9
:10391000959FD1F3950F50E0551F629FF001729F64
:10392000BB27F00DB11D639FAA27F00DB11DAA1F83
:10393000649F6627B00DA11D661F829F2227B00DD0
:10394000A11D621F739FB00DA11D621F839FA00D5B
:10395000611D221F749F3327A00D611D231F849FAB
:10396000600D211D822F762F6A2F11249F57504002
:103970008AF0E1F088234AF0EE0FFF1FBB1F661F9D
:10398000771F881F91505040A9F79E3F510570F056
:1039900060CFAACF5F3FECF3983EDCF38695779536
:1039A0006795B795F795E7959F5FC1F7FE2B880F51
:1039B000911D9695879597F90895FA01EE0FFF1FCF
:1039C00030962105310599F16115710561F4803852
:1039D000BFE39B0749F168949038810561F0803816
:1039E000BFEF9B0741F0992342F5FF3FE105310509
:1039F000210511F1E8940894E795D901AA2329F447
:103A0000AB2FBE2FF85FD0F310C0FF5F70F4A69508
:103A1000E0F7F73950F019F0FF3A38F49F779F93A9
:103A20000CD00F9007FC905808953EF018CF60E03E
:103A300070E080E89FE308954FE79F775F934F938F
:103A40003F932F939ED02F913F914F915F9152DFE3
:103A500005C019F40EF0FDCE46CF01CF2ADFC8F322
:103A60009638C0F707F80F92E8942BE33AEA48EB50
:103A70005FE74EDF0F920F920F924DB75EB70F9236
:103A8000C0D0E8E6F0E016D04F915F91EF91FF9142
:103A9000E595EE1FFF1F49F0FE57E0684427EE0F43
:103AA000441FFA95E1F74195550B32D00F9007FE70
:103AB00026C00895DF93CF931F930F93FF92EF9249
:103AC000DF927B018C01689405C0DA2EEF011EDFC6
:103AD000FE01E894A5912591359145915591AEF35C
:103AE000EF018EDDFE019701A801DA9479F7DF90EE
:103AF000EF90FF900F911F91CF91DF9108959B015F
:103B0000AC0160E070E080E89FE3CDCDA2CEACC018
:103B1000D0DEE8F39923D9F3940F511DBBF39150F4
:103B2000504094F059F0882332F0660F771F881FB9
:103B300091505040C1F79E3F510544F7880F911DA9
:103B40009695879597F908955F3FACF0983E9CF065
:103B5000BB27869577956795B79508F4B1609395DF
:103B6000C1F7BB0F58F711F460FFE8CF6F5F7F4FCD
:103B70008F4F9F4FE3CFB8CE0EF076C070CE6894D3
:103B800068CE97DEC8F39923D1F3C6F3DF93CF93C2
:103B90001F930F93FF92C92FDD2788232AF02197C7
:103BA000660F771F881FDAF720E030E040E85FEB10
:103BB0009FE3883920F0803E30F021968F770FDD2B
:103BC000E0E9F0E003C00BDDEDEBF0E073DF8B012B
:103BD000BE01EC01FB2E6F5771097595771F880B9D
:103BE000990BFCDD28E132E741E35FE38FDEAF2D87
:103BF0009801AE01FF900F911F91CF91DF9100DDF1
:103C00003FCEFA01DC01AA0FBB1F9B01AC01BF57DD
:103C100028F422273327442750781FC0B75188F44F
:103C2000AB2F0024469537952795011CA395D2F319
:103C3000002069F0220F331F441FB395DAF30DD033
:103C4000CDCC61307105A0E88A07B94630F49B01FC
:103C5000AC016627772788279078309621F020835B
:103C600031834283538308959F3F31F0915020F474
:103C7000879577956795B795880F911D9695879548
:103C800097F90895DB018F939F930E94C71EBF9100
:103C9000AF91A29F800D911DA39F900DB29F900D9B
:103CA00011240895991B79E004C0991F961708F014
:103CB000961B881F7A95C9F780950895AA1BBB1B90
:103CC00051E107C0AA1FBB1FA617B70710F0A61B1C
:103CD000B70B881F991F5A95A9F780959095BC013D
:103CE000CD01089597FB072E16F4009407D077FDB9
:103CF00009D00E945E1E07FC05D03EF49095819588
:103D00009F4F0895709561957F4F0895A1E21A2EF7
:103D1000AA1BBB1BFD010DC0AA1FBB1FEE1FFF1F6F
:103D2000A217B307E407F50720F0A21BB30BE40BBF
:103D3000F50B661F771F881F991F1A9469F7609506
:103D40007095809590959B01AC01BD01CF010895C0
:103D5000052E97FB1EF400940E94BF1E57FD07D04E
:103D60000E94861E07FC03D04EF40C94BF1E509593
:103D70004095309521953F4F4F4F5F4F0895909557
:103D80008095709561957F4F8F4F9F4F08950E944A
:103D9000D81EA59F900DB49F900DA49F800D911DDE
:103DA00011240895EE0FFF1F0590F491E02D099462
:103DB000A29FB001B39FC001A39F700D811D11246C
:103DC000911DB29F700D811D1124911D08958F9238
:103DD0009F92AF92BF92CF92DF92EF92FF92CF93DA
:103DE000DF93EC01688179818A819B81611571057E
:103DF0008105910521F464E279ED8BE597E02DE1F1
:103E000033EF41E050E00E94A81E49015A019B0196
:103E1000AC01A7EAB1E40E94C71E6B017C01ACEEC5
:103E2000B4EFA50194010E94471FC60ED71EE81EDD
:103E3000F91EF7FE06C081E0C81AD108E10880E843
:103E4000F80AC882D982EA82FB82C701B6019F774D
:103E5000DF91CF91FF90EF90DF90CF90BF90AF9028
:103E60009F908F9008950E94E71E089580E091E052
:103E70000E94E71E089560930001709301018093F2
:103E80000201909303010895B7FF0C94C71E0E948E
:0C3E9000C71E821B930B0895F894FFCF0F
:103E9C00010000006E0166015E0156010101456CD6
:103EAC006576656E0053636F7265203A00486967EA
:103EBC0068657374203A0047616D65206F76657292
:103ECC0000576F6E2021004C4F41444552000000BA
:063EDC000000C6161519D6
:00000001FF
