:100000000C9466030C948E030C948E030C948E0354
:100010000C948E030C948E030C948E030C948E031C
:100020000C948E030C948E030C948E030C940B1979
:100030000C948E030C948E030C948E030C948E03FC
:100040000C9482190C948E030C948E030C948E03E2
:100050000C948E030C948E030C948E030C948E03DC
:100060000C948E030C948E0307634236B79BD8A77B
:100070001A39685618AEBAAB558C1D3CB7CC5763CD
:10008000BD6DEDFD753EF6177231BF000000803F7B
:1000900008000000BE922449123EABAAAA2ABECD97
:1000A000CCCC4C3E00000080BEABAAAAAA3E000009
:1000B0000000BF000000803F000000000008417801
:1000C000D3BB4387D1133D190E3CC3BD4282AD2B38
:1000D0003E68EC8276BED98FE1A93E4C80EFFFBE30
:1000E00001C4FF7F3F0000000000456C6576656E2F
:1000F00000456C6576656E0003053F213F0A100AD6
:100100001208120E1C0E0C1E0C141A14161F161EAA
:10011000131E1E1B1E1E1F1E3F213F3A2F3A173D66
:10012000173F213F181F02040A041F0E04040E1F6C
:100130000A1F0A0E0E1F04110E2E252E2F2A2E2600
:100140002929021F02081F08150E04040E150E159A
:10015000151B151B040604040C0400000000170006
:100160000300031F0A1F16371A1904130A153A0051
:100170000300000E11110E000A040A040E040030E0
:10018000000404040010001804031F111F121F10A4
:100190001D151711151F07041F17151D1F151D010C
:1001A000011F1F151F17151F000A00003200040A47
:1001B000110A0A0A110A040115020E11171E051E62
:1001C0001F150A0E110A1F110E1F15111F05010E12
:1001D000111D1F041F111F1108100F1F041B1F10DA
:1001E000101F061F1E040F0E110E1F09060E112EE2
:1001F0001F051A121509011F011F101F0F180F1FCD
:100200000C1F1B041B031C03191513001F110304EF
:1002100018111F000201022020200001020C121EF2
:100220001F120C0C12120C121F0C1A14041E05249F
:100230002A1E1F021C141D1020201D1F0814111F30
:10024000101E041E1E021C0C120C3E0A040C123E50
:100250001E040214160A020F120E101E0E100E1E9D
:10026000081E120C1226281E322A26041E21001FE8
:1002700000211E040102013F213F05077F4141414A
:100280007F3E5B4F5B3E3E6B4F6B3E183C783C18AD
:10029000183C7E3C181C577D571C1C5E7F5E1C0062
:1002A0007E43437E007E73737E007E7F7F7E7F4130
:1002B00041417F30483A060E06297929067F41419F
:1002C000417F60703F02042A1C361C2A7F3E1C08B6
:1002D0000000081C3E7F14227F22143C3C3C7EFF21
:1002E00018423C817E3E6375633E3E616B633E3ED9
:1002F000636B6B3E04027F020410207F201008080D
:100300002A1C08081C2A0808143E554122637569F6
:10031000756310181C1810040C1C0C04000000005D
:100320000000005F00000007000700147F147F1426
:10033000042A7F2A1023130864623649562050008D
:1003400008070300001C2241000041221C002A1C57
:100350003E1C2A08083E080800E060000008080863
:100360000808006060000060100804033E51494521
:100370003E00427F400062514949462141494D3388
:100380001814127F1027454545393C4A49493041E8
:10039000211109073649494936064949291E0000F5
:1003A000240000008064000008142241001414148A
:1003B0001414004122140802015909063E415D59F6
:1003C0004E7C1211127C7F494949363E41414122FF
:1003D0007F4141221C7F494949417F090909013E6A
:1003E000414151327F0808087F00417F4100204190
:1003F000413F017F081422417F404040407F020C72
:10040000027F7F0204087F3E4141413E7F09090986
:10041000063E416141BE7F091929462649494932B4
:1004200001017F01013F4040403F1F2040201F3F0E
:100430004038403F63140814630304780403615197
:10044000494543007F4141000304081060004141D9
:100450007F0004020102048080808080000307087E
:100460000020545478407F28444438384444442879
:10047000384444287F3854545418087E0909021817
:10048000A4A49C787F0804047800447D40000060A8
:1004900080847D7F1010284400417F40007C0478D8
:1004A00004787C080404783844444438FC18242434
:1004B0001818242418FC7C080404080854545420F8
:1004C000043F4444203C4040207C1C2040201C3CF5
:1004D0004020403C44281028444C9090907C446438
:1004E000544C44000836410000007F0000004136B3
:1004F0000800180408100C7F4141417F0A4E6F200C
:1005000053442063617264206F720A6E6F204C4FF7
:10051000414445522E4845580A0A153A45786974AF
:10052000001D20466C617368696E670A20206C6F3D
:10053000616465722E2E2E0A0A444F4E27542054B1
:1005400055524E204F464621004E4F2042415454B2
:100550004552590A0A504C454153450A5455524E8A
:10056000204F464600177361766500166261636B23
:10057000001574797065000A0A0A153A6F6B617983
:1005800020163A6564697400596F7520656E74654C
:100590007265640A00540A03E181867F3E186D8308
:1005A0000F0F0E0183866033186DC3198F1803C3B4
:1005B0008E6033186DE330CF1803C39E603630CDA4
:1005C000E360CF3006C79E7E3E30CDB360CF300CA7
:1005D000C6F6603330D9B660CF33CFCCF66061B0A9
:1005E000DB1E60CF30D86CE6C061B0DB1E618F19B6
:1005F000986CC6C063B19B0E330F0FB078C6FF7EF8
:100600001F1B061E0F1753440016137800161314F1
:10061000001510200015201000000005008930088A
:10062000023802497868140000450068010000059E
:10063000006801380100000500380168010000F67B
:10064000E8DBCFC3B8AEA49B928A827B746E6862EB
:100650005C57524E4945413E3A3734312E2C2927BA
:1006600025232167066B060101F7030101FF030043
:10067000000000240027002A0000000000250028B8
:10068000002B0000000000230026002900040404C1
:10069000040404040402020202020203030303032B
:1006A0000301020408102040800102040810200108
:1006B00002040810200000000700020100000304EB
:1006C00006000000000000000000150411241FBEF9
:1006D000CFEFD8E0DEBFCDBF11E0A0E0B1E0E2E2B5
:1006E000F4E402C005900D92A634B107D9F714E0E6
:1006F000A6E4B1E001C01D92A130B107E1F716E018
:10070000CCECD6E004C02297FE010E94D421CA3C62
:10071000D107C9F70E94FA1B0C940F220C94000019
:10072000A0E0B0E0E6E9F3E00C94E021EC01A88061
:10073000B980CA80DB80A114B104C104D10441F4A2
:1007400084E2A82E89EDB82E8BE5C82E87E0D82E3E
:10075000C601B5012DE133EF41E050E00E94B72121
:1007600027EA31E440E050E00E944F217B018C01F8
:10077000C601B5012DE133EF41E050E00E94B72101
:10078000CA01B9012CEE34EF4FEF5FEF0E944F2109
:100790006E0D7F1D801F911F97FF04C06150704038
:1007A00080409048688379838A839B839B01AC0156
:1007B0005F77B901CA01CDB7DEB7EAE00C94FC213E
:1007C0000E949003089580E391E00E9490030895B1
:1007D0006093300170933101809332019093330123
:1007E0000895DC01E0E040E050E020E030E06D9171
:1007F0007C9111976115710581F02417350759F027
:10080000F901EE0FFF1FE80FF91F71836083119646
:100810001C921E92E1E02F5F3F4F4F5F5F4F129699
:100820004430510521F78E2F0895109295011092B2
:10083000940182E491E09093930180939201089552
:100840000F931F93CF93DF9360E070E080E090E020
:1008500024E630E040E050E00E94D31D6A35710587
:100860001CF401E010E002C002E010E0C4E3D1E0BB
:10087000DE0160E070E013C0FA01E20FF31F808137
:100880009181892B11F46F5F7F4F2E5F3F4F28308E
:10089000310591F7129681E0AC33B80731F04D91F4
:1008A0005C91119720E030E0E7CF6115710561F1AF
:1008B0006F5F7F4F9B01442737FD4095542F61E0C8
:1008C00070E080E090E00E94D31D40E050E017C04F
:1008D00080819181892B41F44F5F5F4F4617570705
:1008E00019F41183008310C02F5F3F4F32962430DC
:1008F000310571F7229681E0CC33D80729F0E881E1
:10090000F98120E030E0E4CFDF91CF911F910F918A
:100910000895EF92FF920F931F93CF93DF93A4E379
:10092000B1E0ED91FD911182108213821282158245
:1009300014821782168281E0AC33B80791F760E029
:1009400070E080E090E023E030E040E050E00E9482
:10095000D31D8B0160E070E080E090E023E030E0A8
:1009600040E050E00E94D31DEB0160E070E080E0C9
:1009700090E023E030E040E050E00E94D31D7B0196
:100980000BC060E070E080E090E023E030E040E009
:1009900050E00E94D31DEB0160E070E080E090E049
:1009A00023E030E040E050E00E94D31D0C171D070B
:1009B00021F4E616F70629F3E801000F111F0C5C7D
:1009C0001E4FEE0CFF1CD801ED91FC91EE0DFF1DAA
:1009D00081E090E091838083CC0FDD1FCC5CDE4F03
:1009E000660F771FE881F981E60FF71F91838083F7
:1009F0001092ED011092EC01DF91CF911F910F91B8
:100A0000FF90EF9008958F929F92AF92BF92CF92F6
:100A1000DF92EF92FF920F931F93CF93DF93EC013E
:100A2000688179818A819B816817790709F06CC098
:100A30006115710509F468C06F5F7F4F7983688322
:100A4000882777FD8095982F0E94F91E9B01AC01A5
:100A500060E070E080E090E40E94E81F9B01AC0140
:100A6000CA01B90120E030E040E85FE30E94FA1DCE
:100A700020E030E040E050E00E94FA1D0E94C61ED7
:100A80006B012C813D818E819F8128173907C9F523
:100A900021153105B1F149010894811C911C9D82F9
:100AA0008C82B401882777FD8095982F0E94F91ECB
:100AB0009B01AC0160E070E080E090E40E94E81FE0
:100AC0007B018C01B601882777FD8095982F0E94C5
:100AD000F91E5B016C01C801B70120E030E040E87D
:100AE0005FE30E94FA1D9B01AC01C601B5010E94A3
:100AF000FA1D0E94C61E6B019B828A821D821C8287
:100B000034C03B832A832DC06C817D818617970773
:100B100079F5009769F1BC016F5F7F4F7B836A8332
:100B2000882777FD8095982F0E94F91E9B01AC01C4
:100B300060E070E080E090E40E94E81F9B01AC015F
:100B4000CA01B90120E030E040E85FE30E94FA1DED
:100B500020E030E040E050E00E94FA1D0E94C61EF6
:100B60006B018E819F819D838C831F821E8230C08A
:100B70008E819F816817790749F56115710531F1FB
:100B80006F5F7F4F7D836C83882777FD8095982FDB
:100B90000E94F91E9B01AC0160E070E080E090E4EF
:100BA0000E94E81F9B01AC01CA01B90120E030E0BE
:100BB00040E85FE30E94FA1D20E030E040E050E0B2
:100BC0000E94FA1D0E94C61E6B01CFCFCC24DD24EB
:100BD000C601DF91CF911F910F91FF90EF90DF90B1
:100BE000CF90BF90AF909F908F900895DF92EF923B
:100BF000FF920F931F938C017B010E94F103D82E6B
:100C0000C8010E9403059C01F70180819181820F38
:100C1000931F91838083DD2019F480E0232B09F05A
:100C200081E01F910F91FF90EF90DF900895AF92B8
:100C3000BF92DF92EF92FF920F931F93DF93CF93B8
:100C400000D0CDB7DEB71A821982DD2400E010E0B3
:100C50007E010894E11CF11C24C0D901A251BE4FB1
:100C6000F901EC5CFE4F0190F081E02DE00FF11FE7
:100C7000808191818D939C932E5F3F4F2830310569
:100C800061F78EEE91E0B7010E94F605882311F41A
:100C90008D2DD11081E0D82E0E5F1F4F0830110529
:100CA000B1F020E030E0D9CF8D2DD11081E0D82EE9
:100CB0000E5F1F4F0830110581F464E3E62E61E0FA
:100CC000F62E87015E010894A11CB11C4AC000E009
:100CD00010E07E010894E11CF11CE0913A01F091D2
:100CE0003B01E00FF11F808191819093EF01809390
:100CF000EE01E0913801F0913901E00FF11F8081A0
:100D000091819093F1018093F001E0913601F0918F
:100D10003701E00FF11F808191819093F30180935F
:100D2000F201E0913401F0913501E00FF11F808173
:100D300091819093F5018093F4018EEE91E0B701DB
:100D40000E94F605882309F4AFCFB0CF8D2DD110C6
:100D500081E0D82E0E5F1F4F21E00C33120709F4FB
:100D600043C0D801ED91FC91808191819093EF0176
:100D70008093EE01828193819093F1018093F00141
:100D8000848195819093F3018093F201868197810C
:100D90009093F5018093F4018EEE91E0B5010E94ED
:100DA000F605882399F2D4CF16968D919C911797CA
:100DB00081939193129721E0E63FF207A9F7CF01C3
:100DC0000897B8010E94F605882311F48D2DD110E3
:100DD00081E0D82EA2E0B0E0EA0EFB1EBCE3EB16E9
:100DE000B1E0FB0621F409C08E010F5F1F4FF70130
:100DF000A081B181EEEEF1E0D7CF0F900F90CF91AF
:100E0000DF911F910F91FF90EF90DF90BF90AF9017
:100E10000895BF92CF92DF92EF92FF920F931F93AC
:100E2000CF93DF93AFE2FA2EF0929B0181E08093A3
:100E30009C0182E991E06AE772E00E94C30E82E9B8
:100E400091E060E071E00E94651D82E991E068EF49
:100E500070E00E94C30E02E300939B018AE080933E
:100E60009C0182E991E067E071E00E94651D17E353
:100E700010939B0181E180939C016091EC01709142
:100E8000ED0182E991E04AE050E00E94521D00939A
:100E90009B0188E180939C0182E991E06FE071E021
:100EA0000E94651D10939B018FE180939C016091CE
:100EB000EA017091EB0182E991E04AE050E00E9482
:100EC000521D0E941706882359F4F0929B0186E276
:100ED00080939C0182E991E069E171E00E94651DC7
:100EE000F4E3EF2EF1E0FF2EE4E0DE2EBB24B3941A
:100EF0003AC082E991E0612F4C2D2CE00CE00E9479
:100F00006E0CD701ED91FC91EC0FFD1F808191815A
:100F10000A972CF41C5F10939B01145004C01E5FB1
:100F200010939B011250D0929C01808191810B976C
:100F300011F4B092F901608171816115710531F090
:100F400082E991E04AE050E00E94521D155F22962E
:100F50001C3279F6BBE0DB0E82E090E0E80EF91E71
:100F600090E3D91639F07CEFC72ECD0C10E0C0E02D
:100F7000D0E0BFCF8091F901882391F082E991E020
:100F80006AE772E00E94C30E8FE280939B0186E2C3
:100F900080939C0182E991E063E271E00E94651D0B
:100FA000DF91CF911F910F91FF90EF90DF90CF9045
:100FB000BF9008950F931F93CF93DF9386E491E042
:100FC0000E941313882309F4CBC11092F6011092EA
:100FD000F8011092F70180E591E066E00E94340B81
:100FE000882339F086E491E06AEE70E00E942A15C9
:100FF00072C180E591E061E00E94340B882309F41E
:101000008EC18091F901882309F089C181E090E0C7
:101010009093F8018093F701C0E0D0E03DC0D90182
:10102000A251BE4FF901EC5CFE4F0190F081E02D22
:10103000EC0FFD1F808191818D939C932E5F3F4F1C
:101040002830310561F78EEE91E06CEE71E00E9480
:10105000F605882319F48091F601811181E08093CF
:10106000F60120E030E0F901EC5CFE4F0190F081E8
:10107000E02DEC0FFD1FD901A251BE4F8D919C9127
:10108000918380832E5F3F4F2830310561F7229690
:10109000C830D10509F41FC120E030E0C0CF8091F5
:1010A000F901882309F043C182E090E09093F801B0
:1010B0008093F701C0E0D0E03BC08091F601811140
:1010C00081E08093F601E0913A01F0913B01EC0F51
:1010D000FD1F8091EE019091EF0191838083E0915B
:1010E0003801F0913901EC0FFD1F8091F0019091D2
:1010F000F10191838083E0913601F0913701EC0F8B
:10110000FD1F8091F2019091F30191838083E09122
:101110003401F0913501EC0FFD1F8091F4019091A5
:10112000F501918380832296C830D10509F4D3C09C
:10113000E0913A01F0913B01EC0FFD1F808191811C
:101140009093EF018093EE01E0913801F091390125
:10115000EC0FFD1F808191819093F1018093F0014C
:10116000E0913601F0913701EC0FFD1F80819181F4
:101170009093F3018093F201E0913401F0913501F5
:10118000EC0FFD1F808191819093F5018093F40114
:101190008EEE91E06CEE71E00E94F605882309F472
:1011A0008CCF8ECF8091F901882309F0C8C083E0ED
:1011B00090E09093F8018093F701C4E3D1E025C05B
:1011C0008091F601811181E08093F601E991F99116
:1011D0008091EE019091EF01918380838091F001E5
:1011E0009091F101938382838091F2019091F301B8
:1011F000958384838091F4019091F5019783868390
:1012000081E0CC33D80709F466C0E881F981808198
:1012100091819093EF018093EE018281938190936D
:10122000F1018093F001848195819093F301809383
:10123000F201868197819093F5018093F4018EEEFF
:1012400091E06CEE71E00E94F605882309F4B8CFB6
:10125000BACF8091F901882309F079C084E090E049
:101260009093F8018093F70104E311E02BC01696E8
:101270008D919C91179781939193129781E0E63F0E
:10128000F807A9F7CF0108976CEE71E00E94F60508
:10129000882319F48091F601811181E08093F60191
:1012A000D801ED91FC91899199919783868332972A
:1012B000B1E0C63FDB07B9F70E5F1F4FE1E00C332B
:1012C0001E0749F0F801A081B181CEEED1E0FE0108
:1012D000CECF0E9489042091F7013091F8012115A9
:1012E000310559F08091F601882339F08091F90198
:1012F000882319F4C9010E9420042091EC01309147
:10130000ED018091EA019091EB018217930724F49B
:101310003093EB012093EA010E94090721C080E588
:1013200091E063E00E94340B882309F0B8CE80E599
:1013300091E060E00E94340B882309F033CF80E510
:1013400091E062E00E94340B882309F082CF80E5AF
:1013500091E065E00E94340B882309F4BCCFB9CF3B
:10136000DF91CF911F910F910895EF92FF920F930C
:101370001F93CF93DF9386E491E00E942F1582E9BB
:1013800091E06AE772E00E94C30E86E491E061EFAB
:1013900070E00E942A1586E491E00E94DE1282E944
:1013A00091E068EF70E00E94C30E10925E0160E071
:1013B00070E080E090E023E030E040E050E00E9408
:1013C000D31D8B0160E070E080E090E023E030E02E
:1013D00040E050E00E94D31DEB0160E070E080E04F
:1013E00090E023E030E040E050E00E94D31D7B011C
:1013F0000BC060E070E080E090E023E030E040E08F
:1014000050E00E94D31DEB0160E070E080E090E0CE
:1014100023E030E040E050E00E94D31D0C171D0790
:1014200021F4E616F70629F3E801000F111F0C5C02
:101430001E4FEE0CFF1CD801ED91FC91EE0DFF1D2F
:1014400081E090E091838083CC0FDD1FCC5CDE4F88
:10145000660F771FE881F981E60FF71F918380837C
:10146000DF91CF911F910F91FF90EF900895882306
:1014700019F48CB5806202C08CB58F7D8CBD089547
:101480009CB5937F982B9CBD08952CB5382F337055
:101490002C7F322B3CBD2DB590E095958795959589
:1014A000879581702E7F822B8DBD08958AE061E043
:1014B0000E94531B8AE061E00E94141B8CB580617E
:1014C0008CBD8CB580648CBD8DE061E00E94141BE6
:1014D0008BE061E00E94141B0895FC0181E0808391
:1014E000089585E070E00E94B41A08956F927F928B
:1014F0008F929F92AF92BF92CF92DF92EF92FF9224
:101500000F931F93CF93DF93EC0189819A818C0114
:1015100024E0000F111F2A95E1F7081B190B85E144
:101520000E94921ABC01600F711F84E07695679546
:101530008A95E1F77A8369838881882381F12E81F6
:101540003F816217730710F4B90106C08885998539
:101550008617970708F4BC0100D000D080E090E027
:1015600040E050E0E884F98400E010E0AD80BB2466
:10157000CC24DD246C80772488249924EDB7FEB731
:1015800061827282838294820E94681D6B830F90B5
:101590000F900F900F9085E070E00E94B41ADF91D9
:1015A000CF911F910F91FF90EF90DF90CF90BF9060
:1015B000AF909F908F907F906F900895FC018CE387
:1015C0009FE09383828384E0818381E08487089510
:1015D000CF93DF93EC018C8590E08F719070892B15
:1015E00069F584E10E94921AAA2797FDA095BA2F67
:1015F000BC01CD010E94F91E26EE3FE34EEC50E403
:101600000E94851F0E94CB1E9B01AC017B836A83D5
:101610006115710589F084E08983B901FE0120E03C
:10162000848195816817790710F429830AC02F5F98
:1016300032962430A9F702C08FEF89838C858F5FA3
:101640008C87DF91CF910895FC0188E0808389E049
:10165000818387E0828386E0838384E0848382E0E1
:10166000858381E18683089520E0FC01E60FF11D6A
:101670008781813009F421E0822F08950F931F9311
:10168000CF93DF93EC0110E00FEF888162E00E94BE
:10169000141B88810E94A71B2F81892B19F42F5FAF
:1016A0002F8307C0222349F02F3F11F41F8201C06E
:1016B0000F83888160E00E94141B1F5F2196173002
:1016C00021F7DF91CF911F910F910895FC01678F52
:1016D00060A30895FC01678F40A30895FC01643561
:1016E000A8F547FD33C040338CF5878D942F959531
:1016F00095959595772767FD70954770882399F0A4
:10170000E4E59E02F0011124E60FF71FE650FE4FBC
:1017100081E090E002C0880F991F4A95E2F720818E
:10172000282B20830895E4E59E02F0011124E60FA2
:10173000F71FE650FE4F81E090E002C0880F991F2E
:101740004A95E2F780952081282320830895AF925F
:10175000BF92CF92DF92EF92FF920F931F93CF939E
:10176000DF93EC01162FF42EE22EAA24402F5527EA
:1017700047FD50958F2D992787FD9095481B590B54
:1017800057FF03C0509541955F4F2E2D332727FDFE
:101790003095812F992787FD9095281B390B37FFAE
:1017A00003C0309521953F4F2417350744F4AA24F0
:1017B000A3948F2DF12E182F802F0E2DE82EE116D9
:1017C00034F48E2DE12E182F802F0F2DF82EDE2CC5
:1017D000D11A202F332727FD30958F2D992787FD8C
:1017E0009095281B390B37FF03C0309521953F4F4B
:1017F000B22EF0161CF0CC24CA9402C0CC24C394A0
:101800008D2DD7FC8F5F082F059511C0AA2021F0E0
:10181000CE016F2D412F03C0CE01612F4F2D0E94AD
:101820006E0B0B1907FF02C0FC0C0D0D1F5FE116BC
:101830006CF7DF91CF911F910F91FF90EF90DF90A8
:10184000CF90BF90AF9008950F93042F322F262F83
:101850002150230F0E94A70B0F9108950F93362F4D
:10186000042F0150020F232F0E94A70B0F91089500
:101870009F92AF92BF92CF92DF92EF92FF920F931F
:101880001F93CF93DF936C01B62E942EA02EC0E051
:10189000D0E0E62EFF24E7FCF094022F112707FD8D
:1018A00010950E0D1F1D06C0C601492D2A2D0E9440
:1018B0002E0C21966B2D6C0FCE018E0D9F1D801767
:1018C000910794F3DF91CF911F910F91FF90EF90CB
:1018D000DF90CF90BF90AF909F900895CF92DF920E
:1018E000EF92FF920F931F937C01162FD42EC22EDE
:1018F0000E94240C4D2D4150400FC701612F2C2D0B
:101900000E94240CC701612F4D2D202F0E942E0C08
:1019100011501C0DC701612F4D2D202F0E942E0C40
:101920001F910F91FF90EF90DF90CF9008952F922D
:101930003F925F926F927F928F929F92AF92BF92EF
:10194000CF92DF92EF92FF920F931F93DF93CF938B
:1019500000D000D000D0CDB7DEB79E838D83C62ED9
:10196000D42EEE24E394E21A8EEF289F502C1124FB
:10197000842E8A94962E9A94A42EA394B62EB39471
:10198000F22E662423E0722E10E0C801847090705D
:101990009A838983F801E270F070FC83EB8398E00E
:1019A000292E312C202231220170107054C0E7FC06
:1019B00004C0FA94F2E05F0EE50C639489819A8189
:1019C000892B71F04F2D4D0D8D819E816B2D0E94C5
:1019D0006E0B6F2D6C0D8D819E814A2D0E946E0BBA
:1019E000EB81FC81EF2B71F04D2D4F198D819E8184
:1019F0006B2D0E946E0B6F2D6C0D8D819E81482D7D
:101A00000E946E0B2114310471F06C2D6F198D81C1
:101A10009E814A2D0E946E0B4F2D4D0D8D819E8112
:101A2000692D0E946E0B0115110571F06C2D6F1957
:101A30008D819E81482D0E946E0B4D2D4F198D81F9
:101A40009E81692D0E946E0BE70CF2E07F0E8A9456
:101A50009A94A394B3946F140CF4A9CF26960FB65E
:101A6000F894DEBF0FBECDBFCF91DF911F910F91D4
:101A7000FF90EF90DF90CF90BF90AF909F908F90AE
:101A80007F906F905F903F902F9008954F925F925C
:101A90006F927F928F929F92AF92BF92CF92DF927E
:101AA000EF92FF920F931F93CF93DF93EC01A62E3B
:101AB000742E9E2DFF24F394F21A8EEF289F802C13
:101AC0001124B42EBA9453E0C52ECE0CE22EDD24A0
:101AD00043E0942E10E031E0432E512C402251225D
:101AE000692E63940270107034C0F7FC04C0EA944D
:101AF00082E0880EF80CD3944114510489F06D2DC6
:101B00006A0D472D4E192E2D220F260DCE010E9453
:101B10002E0C6E2D6A0DCE014B2D2C2D0E942E0CFD
:101B20000115110589F06A2D6D19472D4E192E2DBD
:101B3000220F260DCE010E942E0C6A2D6E19CE01A9
:101B40004B2D2C2D0E942E0CF90C82E0980EBA948D
:101B5000C80EDE1454F2DF91CF911F910F91FF90C8
:101B6000EF90DF90CF90BF90AF909F908F907F903D
:101B70006F905F904F9008957F928F929F92AF9257
:101B8000BF92CF92DF92EF92FF920F931F936C015F
:101B9000962EA42EF22E7E2C760E1EEFE19E102D98
:101BA0001124812E820E672D282D0E94240CB02E28
:101BB000BA0CBA94C601672D4B2D282D0E94240C17
:101BC000AE0C100FC601692D4A2D212F0E942E0C3C
:101BD000F90CFA94C6016F2D4A2D212F0E942E0C6C
:101BE000C601672D4A2D2E2D01E00E94970CFE188C
:101BF000C6016F2D4A2D2E2D02E00E94970CBE18B3
:101C0000C6016F2D4B2D2E2D04E00E94970CC601AE
:101C1000672D4B2D2E2D08E00E94970C1F910F91E0
:101C2000FF90EF90DF90CF90BF90AF909F908F90FC
:101C30007F9008958F929F92AF92BF92CF92DF9242
:101C4000EF92FF920F931F936C01162FA42E922EEA
:101C5000F02EBE2C8E2C860E2EEFE29EE02C112450
:101C60002E2D290D682D0E94380CAB0CFA94FE0C19
:101C70001150190D1B19C601612F4A2D2B2D01E0A2
:101C8000EF2C0E94460DC601682D4A2D2B2D02E037
:101C90000E94460D1F910F91FF90EF90DF90CF9023
:101CA000BF90AF909F908F9008953F924F925F9218
:101CB0006F927F928F929F92AF92BF92CF92DF925C
:101CC000EF92FF920F931F93CF93DF934C01362E29
:101CD000442EF901A490319654906F010894C11CD0
:101CE000D11C8A2D992787FD9095079668E070E0B2
:101CF0000E948221E62EFF24E7FCF09400E0C0E081
:101D0000D0E060E8662E712C26C0E12FE595E595C0
:101D1000E595FF27E7FDF095EC0FFD1FEC0DFD1D90
:101D2000E4912E2F30E0812F8770A30102C05595DA
:101D300047958A95E2F724233523232B31F0612F31
:101D4000630DC4014B2D0E946E0B1F5F1A15ECF240
:101D50000F5FCE0DDF1D051524F410E0B02EB40C7E
:101D6000F5CFDF91CF911F910F91FF90EF90DF9012
:101D7000CF90BF90AF909F908F907F906F905F902B
:101D80004F903F900895DC01FB0184918F5F149682
:101D90008C931497319684918F5F15968C93159739
:101DA00031965E96FC93EE935D9708953F924F9225
:101DB0005F926F927F928F929F92AF92BF92CF92DB
:101DC000DF92EF92FF920F931F93CF93DF93EC017B
:101DD000862EA42E422F102F3F8C23E526170CF4BD
:101DE000ABC03FE23A150CF4A7C0C02EDD248C81B5
:101DF00090E001979C01C29EC001C39E900DD29EAF
:101E0000900D1124262F332727FD3095820F931F25
:101E1000181619060CF090C08D8190E09C01C29EAE
:101E2000C001C39E900DD29E900D11242A2D332700
:101E300027FD3095820F931F181619060CF07CC0F1
:101E40009924442E55246DC09C01215030404217E6
:101E5000530711F460E00EC0429EC001439E900DF6
:101E6000529E900D1124840F951FED8DFE8DE80F6D
:101E7000F91F64914C9DC0014D9D900D5C9D900D8E
:101E80001124682C680EBB24792C780C3FC0E62EF8
:101E9000FF2460FF19C0113039F44B2D4A0DCE01DB
:101EA000672D0E946E0B2EC02C9DC0012D9D900DA4
:101EB0003C9D900D11244A2D480FCE01662D212FF7
:101EC000012F0E94380C1EC098A18F8D9817D1F059
:101ED0009F8F113039F44B2D4A0DCE01672D0E9492
:101EE0006E0B0FC02C9DC0012D9D900D3C9D900D43
:101EF00011244A2D480FCE01662D212F012F0E945B
:101F0000380C3F8EF594E7946E2DB3942B2D332728
:101F100027FD30958D8190E0281739070CF4B7CF55
:101F20009394492D552747FD50958C8190E0481793
:101F300059070CF489CF3F8EDF91CF911F910F91FC
:101F4000FF90EF90DF90CF90BF90AF909F908F90D9
:101F50007F906F905F904F903F9008950F93CF9335
:101F6000DF93EC01262F6A3049F48D819885899F93
:101F7000802D11249A85980F9A8726C06D3029F1FB
:101F800069854A8508850E94D60E9C816885969F42
:101F9000402D11248985480F49878F818823A9F016
:101FA000552747FD5095699F9001112484E590E0E5
:101FB000821B930B8417950744F49D81699F902D94
:101FC00011248A85890F8A87198681E090E0DF9144
:101FD000CF910F9108951F93CF93DF93EC01162FAC
:101FE000F8948E8560E00E94531B8F8518161CF4B0
:101FF00060E00E94531B1EBD0DB407FEFDCF8EB5E1
:102000008F8518161CF461E00E94531B7894DF91B1
:10201000CF911F910895FF920F931F93CF93DF935A
:10202000EC01FF2400E010E06F2D6064CE010E94FF
:10203000EB0FCE0160E80E94EB0F8E8561E00E94FD
:10204000531B8F8518161CF460E00E94531BF80187
:10205000E650FE4F90E080818EBD0DB407FEFDCFAF
:102060008EB59F5F31969435B1F78F8518161CF4A5
:1020700061E00E94531BF3940C5A1F4F86E0F81640
:1020800099F6CE0160E40E94EB0FDF91CF911F9192
:102090000F91FF900895CF93DF93DC0188EF91E0DB
:1020A000EAEFF1E0EF019C01199221503040E1F795
:1020B00019961C9219971A961C92DF91CF91089548
:1020C000EF920F93CF93DF93EC014D876C872E87B0
:1020D000E88A0F8781E088878F8F18A28F83E8EFC7
:1020E000F0E084918F5F8C83319684918F5F8D8334
:1020F0003196FE8FED8F0E94560A81E00E94370ACA
:1021000085E00E94450A8CE00E94400A8D8561E0CE
:102110000E94141B8C8561E00E94141B8E8561E077
:102120000E94141B888918161CF461E00E94141B7D
:102130008F8518161CF461E00E94141B88891816FC
:102140006CF460E00E94531B6AE070E080E090E075
:102150000E94FE19888961E00E94531BEC852E2F96
:10216000332727FD3095F901E357F94FE491F0E06B
:10217000EE0FFF1FE758F94F859194919C8B8B8B45
:102180002F55394FF90184918A8FED852E2F3327F2
:1021900027FD3095F901E357F94FE491F0E0EE0F98
:1021A000FF1FE758F94F859194919A8B898B2F5592
:1021B000394FF9018491898FEF852E2F332727FD21
:1021C0003095F901E357F94FE491F0E0EE0FFF1F6E
:1021D000E758F94F859194919E8B8D8B2F55394FF0
:1021E000F90184918B8FEE852E2F332727FD3095B3
:1021F000F901E357F94FE491F0E0EE0FFF1FE758C4
:10220000F94F85919491988F8F8B2F55394FF90104
:1022100084918C8FCE0161E20E94EB0FCE0164E1CC
:102220000E94EB0F8B8587FF02C08FE78B876B8542
:102230006068CE010E94EB0FCE0160E20E94EB0FBE
:10224000CE016CE00E94EB0FCE010E940B10DF91DB
:10225000CF910F91EF900895CF93DF93DC01E0E8E9
:10226000FFE685919491ED01C95ADF4FAD014359C5
:102270005F4F8150904C09F04EC0E6E9FFE6E491D3
:10228000E883E7E9FFE6E4911496EC931497E8E914
:10229000FFE6E4911596EC931597E9E9FFE6859141
:1022A000949117969C938E931697EBE9FFE6859190
:1022B000949119969C938E931897EDE9FFE6E4911B
:1022C0009996EC939997EEE9FFE6E4919896EC9352
:1022D0009897EFE9FFE6E491EA01E883E0EAFFE698
:1022E000859194915D969C938E935C97E2EAFFE6CC
:1022F000859194915F969C938E935E97E4EAFFE6B6
:102300008591949191969C938E939097E6EAFFE63F
:102310008591949132C08CE3888314961C92149713
:102320002FEF15962C93159780E293E017969C93C8
:102330008E93169784ED93E019969C938E9318973D
:1023400081E099968C93999798968C939897FA0137
:1023500020838CEA9DE05D969C938E935C978EED36
:102360009DE05F969C938E935E9784E79EE09196A6
:102370009C938E9390978CE39FE093969C938E937F
:102380009297DF91CF910895EF92FF920F931F9351
:10239000CF93DF937C018C01045B1F4FC8010E9427
:1023A0004B10C80161E275E00E94331CC8010E9415
:1023B0000B1083E00E94450A89E291E0EEEFFFE313
:1023C000099582E590E0E80EF91EF7011082C80138
:1023D0006CEF74E00E947E1CC8010E940B10E701A4
:1023E000C854D040CE010E943E0BCE0164E00E9452
:1023F000340B882339F462E370E080E090E00E94BF
:10240000FE19F0CFDF91CF911F910F91FF90EF90C8
:1024100008950F931F93CF93DF93EC018C01045B1E
:102420001F4FC80161E040E00E946A0BFE01EB5AB9
:10243000FF4FC05BDF4F85E59881891B808326961F
:102440001882C655D040698D613061F1613028F045
:10245000888D653008F03FC039C0CE0185960E9456
:102460001B16CE0160E00E94710AC8010E944B1049
:10247000C80169E475E00E94331CC8010E940B107A
:1024800083B7817F846083BF83B7816083BF83B755
:10249000816083BF889583B78E7F83BF83B78E7F2C
:1024A00083BF1FC0C259DF4F88819981AA81BB8138
:1024B0008F709070A070B0700897A105B10518F4E6
:1024C000C80167E00CC0C80168E709C0882349F06B
:1024D0006B5FC80104C0882321F0C8016FE20E942D
:1024E000561CDF91CF911F910F910895AF92BF922B
:1024F000CF92DF92EF92FF920F931F93CF93DF93D0
:10250000EC01CD57DF4F8881C358D040882309F4B0
:102510004AC08C3010F010E002C01CE0181BCC5AEE
:10252000DF4F81E08883C455D0406CE4C62ED12CA7
:10253000CC0EDD1EC60160E00E94660B51E5A52EA3
:10254000B12CAC0EBD1EF50100814DE2F42E4F2DD5
:10255000401B410F0D5FC60160E024E533E0E32E30
:102560000E941A0EC60161E00E94660BF50100810F
:10257000F01AF10E0D5FC60160E04F2D24E50E94B8
:10258000BC0DCB5ADF4F84E08993F5018081181B85
:10259000115D1883AB9669917991C6010E94331C35
:1025A000888181508883DF91CF911F910F91FF9097
:1025B000EF90DF90CF90BF90AF9008958F929F9251
:1025C000AF92BF92CF92DF92EF92FF920F931F9341
:1025D0004C01FC01A28CB38CCC24DD240E94D819C0
:1025E0007B018C01F401818092800E94D819860EB3
:1025F000971EE094F09400951095C801B701A601CC
:1026000095010E944F21860E971EC4010E94F11D64
:102610001F910F91FF90EF90DF90CF90BF90AF9000
:102620009F908F900895AF92BF92CF92DF92EF92DA
:10263000FF920F931F93CF93DF93EC01EDE7AE2E44
:10264000B12CA80EB91EF501E080F1800281138142
:102650000E94CA19E61AF70A080B190B7CE7C72E65
:10266000D12CCC0EDD1EF601808190E0A0E0B0E020
:102670008E159F05A007B10708F081C08E0108588C
:102680001F4FF80180819181A281B3810097A1053C
:10269000B10509F474C00E94CA19F6012081620FC5
:1026A000711D811D911DF501608371838283938368
:1026B000FE01E259FF4F80819181A281B381019691
:1026C000A11DB11D80839183A283B383F801108281
:1026D0001182128213820E94D819CC58DF4F68836E
:1026E00079838A839B83C457D040CE010E94760AA7
:1026F000CE010A960E943E0BCE0148960E94E80A3F
:102700008E010B5D1F4FC8010E940316C8010E9475
:102710007A17C8010E94D21881E026C0CE010E941B
:102720007612CE010E9409128E01045B1F4FC80170
:102730000E940B10CE5ADF4F8881C255D0408823AB
:1027400019F4C8010E944B100E94D819C858DF4FD5
:10275000688379838A839B83249728813981621BCC
:10276000730B7A936A9380E0DF91CF911F910F9161
:10277000FF90EF90DF90CF90BF90AF900895C85832
:10278000DF4F88819981AA81BB81C857D0400097CB
:10279000A105B10541F7C2CF2F923F924F925F92B0
:1027A0006F927F928F929F92AF92BF92CF92DF9261
:1027B000EF92FF920F931F93DF93CF93CDB7DEB7C6
:1027C0002B970FB6F894DEBF0FBECDBF9B878A87CD
:1027D0007A8369835C834B838C0103591F4FF80113
:1027E0008081882309F41DC18A859B858D5A9F4F5E
:1027F000FC0110821292E255F040FB87EA87108EAE
:102800009CE4E92EF12CEE0EFF1EC70161E00E9450
:10281000660B8AE0282E312C8A859B85280E391E6E
:10282000B5E26B2E712C680E791EE981FA81F49164
:10283000FD83A5E58A2E912C880E991EF6E5CF2EF4
:10284000D12CC80ED91EE0E54E2E512C480E591E33
:102850008F5A9F4F9F838E837EE6A72EB12C8A8549
:102860009B85A80EB91E198708878A859B850E94BB
:1028700013138823D1F39D81992311F410E003C031
:10288000EE81FF811081C70160E040E025E935E07D
:102890000E94550E8B819C81892B41F0145FC701EA
:1028A00060E0412F2B813C810E94550EF401108283
:1028B0008CE0F6018083C70169817A810E94331C14
:1028C000F201208130E0C901880F991F820F931F08
:1028D000909581959F4F8D5AF4018083EE81FF8101
:1028E000208130E0C901880F991F820F931F9095B6
:1028F00081959F4F835DF6018083F501808184FF80
:1029000004C0C70165E176E003C0C70161E176E07C
:102910000E947E1CF201208130E0C901880F991FBE
:10292000820F931F909581959F4F8D5AF40180835C
:10293000F60180818F5F8083EA85FB8580A58823EF
:1029400021F0C7016DE076E003C0C70169E076E0E1
:102950000E947E1CF201808190E09C01220F331FB7
:10296000280F391F309521953F4F2D5AF4012083B0
:10297000F60180818F5F8083C70165E076E00E9469
:102980007E1CC10165E00E94340B882351F0EA856A
:10299000FB8560A56F5FC3010E943B19C3010E94C4
:1029A0003519C10164E00E94340B882399F4E8854D
:1029B000F9856081262F30E040E050E0F50180810C
:1029C0009181A281B38182179307A407B50708F10B
:1029D0006F3FF9F08A859B8583599F4F9B878A8734
:1029E0008FEFEA85FB858083ED56F040FB87EA8711
:1029F000C30160E00E940716C3010E942F1981E005
:102A0000EA85FB85808F0DC08A859B850E94C41155
:102A10002CCFC10166E00E94340B882309F425CF36
:102A2000F3CF2B960FB6F894DEBF0FBECDBFCF917C
:102A3000DF911F910F91FF90EF90DF90CF90BF90AB
:102A4000AF909F908F907F906F905F904F903F904E
:102A50002F90089540E050E00E94CC130895AF926B
:102A6000BF92CF92DF92EF920F93CF93DF936C01DF
:102A70008CE790E0C80ED91E82E3F601808381E0E6
:102A800090E0A0E0B0E0B293A293929382936F01A2
:102A900085EF9FEFC80ED91E8FEFF601808383E983
:102AA0009FEFC80ED91EC6010E942C11C6010E94BC
:102AB0006D0AC6016FEF0E94710A4AE0A42EB12C84
:102AC000AC0CBD1CC5010E94240BC5010E943E0B2D
:102AD000C60148960E94DE0AC601845B9F4F6DE0E6
:102AE0004BE020E10FE03EE0E32E0E946010E601A3
:102AF000A596CE010E944819C50165E00E94340BDD
:102B0000882329F0CE0160E00E943B1906C0CE0167
:102B10006BE176E040E00E949615DF91CF910F9136
:102B2000EF90DF90CF90BF90AF900895CF93DF9359
:102B3000EC01442369F41D8A1B8A1AA219A21E8A79
:102B40001092F6031092F5031092F3031092B40062
:102B5000A42FB0E09E012A0F3B1FFD01EE0FFF1FC7
:102B6000EC0FFD1F748763871896AA0FBB1FAC0F6D
:102B7000BD1F1D921C9281E0F901818389E0848B45
:102B8000178A118E138EDF91CF910895CF93DF9323
:102B90009C01462FA62FB0E0EC01CA0FDB1F8881F5
:102BA000882371F18981882359F5FD01EE0FFF1FFC
:102BB000E20FF31F8F8190E0880F991F0580F68147
:102BC000E02DE80FF91F859194915FEF8F3F9507F6
:102BD00011F4188215C09A871496AA0FBB1FA20F72
:102BE000B31F90E0880F991FED91FC91E80FF91F3A
:102BF00065917491C9010E9496158F818F5F8F83B3
:102C0000DF91CF91089560E00E94C6150895FC0100
:102C1000662369F4158A138A12A211A2168A1092E9
:102C2000F6031092F5031092F3031092B400E60F2E
:102C3000F11D11820895FC01158A138A12A211A2B6
:102C4000168A1092F6031092F5031092F303109275
:102C5000B400118208950F93CF93DF93EC0162309B
:102C600009F440C0633030F4662359F0613009F054
:102C70004AC00BC0633009F43BC0643009F043C064
:102C80003DC0C00FD11D4C8B3EC0602F70E0DB01FA
:102C9000AA0FBB1FAC0FBD1F842F90E0880F991F98
:102CA0001D962D913C911E97280F391FF901859192
:102CB00094915E969C938E935D97FC0145915491FF
:102CC000A42FFE01E60FF71F478F252F3327842FF0
:102CD00090E02817390708F4A52F6C0F7D1FFB0122
:102CE000A0A311C0FC01E00FF11D478B208F0BC08A
:102CF000FC01E00FF11D418F228F05C0FC01E00FA8
:102D0000F11D438F248FDF91CF910F9108955F9232
:102D10006F927F928F929F92AF92BF92CF92DF92EB
:102D2000EF92FF920F931F93CF93DF936C01562E78
:102D3000E62EFF24DC01AE0DBF1D11968C9111977C
:102D4000882309F4C7C053968C915397882309F0C0
:102D5000C1C08701000F111F0C0D1D1DE701289632
:102D6000CC0FDD1FCC0DDD1D68817981660F771FCB
:102D7000F80143855485640F751FFB01259134913B
:102D80002115310509F069C01F968C911F9781307C
:102D900031F419821882FA01259134915EC011969E
:102DA0001C9211978C91882391F0C601652D0E9489
:102DB000C61588819981880F991FD8011B96ED91BE
:102DC000FC911C97E80FF91F2591349146C05520BE
:102DD00009F080C055961C92559753961C925397B4
:102DE000F80112A211A256961C92F701EA50FC4F6C
:102DF0001082F701EB50FC4F108223EF33E0E20E1C
:102E0000F31ED7011C928091F303882311F0809167
:102E1000F6038093B4005EC0A6E036952795AA9588
:102E2000E1F76F70422F4F71F5E036952795FA95CF
:102E3000E1F72051C601052D0E942B16888199814A
:102E4000019699838883880F991FD501ED91FC9194
:102E5000E80FF91F2591349114C04701880C991C83
:102E600068E0662E712C6E0C7F1CE301CC0FDD1F19
:102E7000CC0DDD1D5601A80CB91CEBE0F0E0AE0E48
:102E8000BF1EB901769567957695679520FDC4CFED
:102E9000F601EE0DFF1D862F8F73828B338B13A2ED
:102EA0008C0C9D1CD40192961C921E92919781E0ED
:102EB000858B23EF33E0E20EF31ED7018C93168A45
:102EC000F301EE0FFF1FEC0DFD1D80819181019636
:102ED00091838083DF91CF911F910F91FF90EF90AD
:102EE000DF90CF90BF90AF909F908F907F906F902A
:102EF0005F90089560E00E9487160895DF92EF9238
:102F0000FF920F931F93CF93DF937C01062F10E066
:102F1000DC01A00FB11F55968C915597882309F4B9
:102F200039C153968C915397882339F5662309F05C
:102F300031C155961C92559753961C925397F801A0
:102F4000EE0FFF1FEE0DFF1D12A211A256961C924E
:102F5000F801EA50FC4F1082F801EB50FC4F108250
:102F60000D501C4FF80110828091F303882311F05B
:102F70008091F6038093B4000DC1815053968C93D9
:102F8000539793968C919397882309F069C0E80131
:102F9000CC0FDD1FCE0DDF1D89A19AA10196880FF0
:102FA000991FED8DFE8DE80FF91F85919491282FC3
:102FB000277094962C939497AC01E3E0569547952F
:102FC000EA95E1F79A0136952795892F99278695F5
:102FD000869595968C9395972F73F7018281289FFC
:102FE000202D112493962C939397F801E950FC4FD0
:102FF0004170408389A19AA101969AA389A35F9603
:103000002C915F9730E08217930750F190968C9146
:103010009097882329F0281B31093AA329A320C0BF
:103020006623F1F455961C92559753961C9253972C
:103030001AA219A256961C92F801EA50FC4F10826F
:10304000F801EB50FC4F1082F801ED50FC4F10825C
:103050008091F303882311F08091F6038093B400EC
:10306000F701E00FF11F83A1815083A336893F5FF1
:10307000368B428925A1240F8285280F618D662316
:1030800011F4D22E0CC0832F992787FD909570E004
:103090000E948221828D869FD02C1124D20EF701AE
:1030A000E00FF11F24896789662371F0772767FD98
:1030B0007095832F992787FD90950E948221808D9E
:1030C000869F802D1124280FF701E00FF11F638DDB
:1030D000662389F0832F992787FD909570E00E94E1
:1030E0008221CB0162E070E00E948221948D899F51
:1030F000802D1124280F4F3331F0822F2A300CF00D
:1031000089E0482F87FD40E0F8948D2D992787FDB1
:103110009095849664E270E00E948221E82FFF2758
:10312000E7FDF095E15CF94FE491D801AC50BC4F5C
:10313000EC93F701E00FF11F26A130E084A199275D
:1031400087FD9095B901689F9001699F300D789F28
:10315000300D1124F701838190E0B901689F90013F
:10316000699F300D789F300D1124842F992787FD9A
:103170009095FC012E9FC0012F9F900D3E9F900DBA
:103180001124F801EB50FC4F80830A501C4FF801CA
:1031900080837894DF91CF911F910F91FF90EF90F2
:1031A000DF90089560E00E947E1708956091F50316
:1031B000662381F18091F2038F5F8093F2039091F7
:1031C000F403891738F130E08091F303882309F480
:1031D00031E03093F3031092F2038091F7038823D8
:1031E000A9F080913C0123E4829FC0011124895BF6
:1031F00080933C0190E070E00E946E218093F60382
:1032000005C08091F6038093B40008953323C9F775
:1032100080E0F9CF08951F920F920FB60F921124FC
:103220002F933F934F935F936F937F938F939F93CE
:10323000AF93BF93EF93FF930E94D618FF91EF9146
:10324000BF91AF919F918F917F916F915F914F91BE
:103250003F912F910F900FBE0F901F90189567E32D
:1032600076E040E00E949615089569E276E040E03D
:103270000E9496150895FC01862F648170E06F5FAF
:103280007F4F992787FD90950E948221838308951F
:103290000F93FC0181E0828384E086A383E696E0BD
:1032A00096878587CF0161E040E020E000E00E9442
:1032B0002B1683E061E070E00E94B41AE1EBF0E0CD
:1032C0008081887F81608083F89410928000E1E89B
:1032D000F0E01082109285001092840088E191E065
:1032E00090938900809388008081886080838081AA
:1032F00081608083EFE6F0E0808182608083789453
:103300000F9108951F920F920FB60F9211242F93D1
:103310003F938F939F93AF93BF938091FC039091C2
:10332000FD03A091FE03B091FF03309100040196CC
:10333000A11DB11D232F2D5F2D3720F02D57019694
:10334000A11DB11D209300048093FC039093FD0305
:10335000A093FE03B093FF038091F8039091F903CB
:10336000A091FA03B091FB030196A11DB11D8093BA
:10337000F8039093F903A093FA03B093FB03BF9172
:10338000AF919F918F913F912F910F900FBE0F9012
:103390001F9018958FB7F8942091FC033091FD038E
:1033A0004091FE035091FF038FBFB901CA010895F8
:1033B0009FB7F8942091F8033091F9034091FA03F4
:1033C0005091FB0386B5A89B06C08F3F21F02F5F6D
:1033D0003F4F4F4F5F4F9FBF542F432F322F222716
:1033E000280F311D411D511D82E0220F331F441F44
:1033F000551F8A95D1F7B901CA0108959B01AC0107
:103400007FB7F8948091F8039091F903A091FA03A3
:10341000B091FB0366B5A89B05C06F3F19F00196FC
:10342000A11DB11D7FBFBA2FA92F982F8827860F06
:10343000911DA11DB11D62E0880F991FAA1FBB1F1E
:103440006A95D1F7BC012DC0FFB7F8948091F803BD
:103450009091F903A091FA03B091FB03E6B5A89B04
:1034600005C0EF3F19F00196A11DB11DFFBFBA2F96
:10347000A92F982F88278E0F911DA11DB11DE2E065
:10348000880F991FAA1FBB1FEA95D1F7861B970BC0
:10349000885E9340C8F2215030404040504068510F
:1034A0007C4F211531054105510571F60895789439
:1034B00084B5826084BD84B5816084BD85B5826039
:1034C00085BD85B5816085BDEEE6F0E080818160D7
:1034D0008083E1E8F0E010828081826080838081D7
:1034E00081608083E0E8F0E0808181608083E1EBAF
:1034F000F0E0808184608083E0EBF0E08081816097
:103500008083EAE7F0E0808184608083808182604C
:103510008083808181608083808180688083109235
:10352000C1000895982F8E3008F09E5097708091BA
:103530003D018295880F880F807C892B80937C00C9
:1035400080917A00806480937A0080917A0086FD71
:10355000FCCF2091780040917900942F80E030E0FA
:10356000282B392BC90108951F93CF93DF93182F70
:10357000EB0161E00E94141B209709F44AC0CF3F81
:10358000D10509F449C0E12FF0E0EB54F94F8491E3
:103590008330C1F0843028F4813051F08230B1F5AD
:1035A0000CC0863019F1873049F1843079F514C0A8
:1035B00084B5806884BDC7BD33C084B5806284BDD6
:1035C000C8BD2EC080918000806880938000D09319
:1035D0008900C093880024C080918000806280931D
:1035E0008000D0938B00C0938A001AC08091B000F5
:1035F00080688093B000C093B30012C08091B00087
:1036000080628093B000C093B4000AC0C038D10576
:103610001CF4812F60E002C0812F61E00E94531BE7
:10362000DF91CF911F910895CF93DF93482F50E002
:10363000CA018F55994FFC0134914357594FFA01F4
:103640008491882369F190E0880F991FFC01E1596A
:10365000F94FA591B491FC01E758F94FC591D49168
:10366000662351F42FB7F8948C91932F909589236A
:103670008C93888189230BC0623061F42FB7F89452
:103680008C91932F909589238C938881832B8883A9
:103690002FBF06C09FB7F8948C91832B8C939FBF4C
:1036A000DF91CF910895482F50E0CA018B54994F74
:1036B000FC012491CA018F55994FFC019491435705
:1036C000594FFA013491332309F440C0222351F1B8
:1036D000233071F0243028F42130A1F0223011F58C
:1036E00014C02630B1F02730C1F02430D9F404C022
:1036F000809180008F7703C0809180008F7D8093C0
:10370000800010C084B58F7702C084B58F7D84BDE2
:1037100009C08091B0008F7703C08091B0008F7D89
:103720008093B000E32FF0E0EE0FFF1FE758F94F52
:10373000A591B4912FB7F894662321F48C919095BC
:10374000892302C08C91892B8C932FBF0895682FF9
:1037500070E0CB018B54994FFC012491CB018F5524
:10376000994FFC0144916357794FFB019491992340
:1037700019F420E030E03CC0222351F1233071F0F5
:10378000243028F42130A1F0223011F514C0263065
:10379000B1F02730C1F02430D9F404C0809180000A
:1037A0008F7703C0809180008F7D8093800010C050
:1037B00084B58F7702C084B58F7D84BD09C08091A8
:1037C000B0008F7703C08091B0008F7D8093B000F0
:1037D000892F90E0880F991F8D57994FFC01A59173
:1037E000B4918C9120E030E0842311F021E030E0AE
:1037F000C9010895CF93DF930E94571A0E94B5091B
:10380000C0E0D0E00E94DA072097E1F30E940000B8
:10381000F9CFCF92DF92EF92FF920F931F93CF9346
:10382000DF937C016B018A01C0E0D0E00FC0D601BC
:103830006D916D01D701ED91FC910190F081E02D2A
:10384000C7010995C80FD91F015010400115110576
:1038500071F7CE01DF91CF911F910F91FF90EF9003
:10386000DF90CF900895EF92FF920F931F93CF9325
:10387000DF937C018B01C0E0D0E0F8010F5F1F4FA8
:103880006491662359F0D701ED91FC910190F0818C
:10389000E02DC7010995C80FD91FEFCFCE01DF91E9
:1038A000CF911F910F91FF90EF900895DC01ED9162
:1038B000FC910190F081E02D09950895EF92FF921F
:1038C0000F931F938C01DC01ED91FC910190F0812D
:1038D000E02D6DE009957C01D801ED91FC910190FE
:1038E000F081E02DC8016AE009959C012E0D3F1D75
:1038F000C9011F910F91FF90EF900895EF92FF92F1
:103900000F931F937C010E94331C8C01C7010E94FE
:103910005E1C9C01200F311FC9011F910F91FF9068
:10392000EF900895CF93DF93EC016115710519F4C1
:1039300020E030E00FC0DB010D900020E9F7119787
:10394000A61BB70BE881F9810280F381E02DAD0160
:1039500009959C01C901DF91CF9108954F925F9223
:103960007F928F929F92AF92BF92CF92DF92EF920F
:10397000FF920F931F93DF93CF93CDB7DEB7A1973D
:103980000FB6F894DEBF0FBECDBF2C01742ECB0155
:10399000223008F42AE019A231E2C32ED12CCC0E39
:1039A000DD1E822E9924AA24BB24672D752FA50124
:1039B00094010E94952179018A01C801B701A501EE
:1039C00094010E944F21472D461B0894C108D1083D
:1039D0004A3014F4405D01C0495CF6014083E114B3
:1039E000F1040105110521F07E2C5F2DC801DDCF0A
:1039F000C201B6010E94921CA1960FB6F894DEBFD8
:103A00000FBECDBFCF91DF911F910F91FF90EF902F
:103A1000DF90CF90BF90AF909F908F907F905F90FE
:103A20004F900895CF92DF92EF92FF920F931F93E2
:103A3000CF93DF93EC016A017B012115310541F43D
:103A4000E881F9810190F081E02D642F09951FC074
:103A50002A303105D1F477FF17C0E881F981019050
:103A6000F081E02D6DE209958C0144275527BA01BC
:103A70004C195D096E097F09CE012AE00E94AE1C37
:103A80009801280F391F04C02AE00E94AE1C9C0137
:103A9000C901DF91CF911F910F91FF90EF90DF90BF
:103AA000CF900895EF92FF920F931F937B019A019D
:103AB0000027F7FC0095102FB801A7010E94121DE6
:103AC0001F910F91FF90EF9008950E94921C08950E
:103AD0002F923F924F925F926F927F928F929F921E
:103AE000AF92BF92CF92DF92EF92FF920F931F930C
:103AF000DF93CF93CDB7DEB73B014C0119012A010B
:103B00006D897E898F89988D6A197B098C099D0939
:103B1000621A730A840A950AA40193010E944F2134
:103B2000E218F30804091509A80197010E94B721BA
:103B30002A0D3B1D4C1D5D1DB901CA01CF91DF91BE
:103B40001F910F91FF90EF90DF90CF90BF90AF90BB
:103B50009F908F907F906F905F904F903F902F90AD
:103B60000895EF92FF920F931F937B018C016115D3
:103B700071058105910529F420E030E040E050E036
:103B80000BC00E94E303A80197010E94B721AC017A
:103B9000CB01DA019C01AD01B901CA011F910F915E
:103BA000FF90EF900895EF92FF920F931F937B0188
:103BB0008C01621773078407950764F4261B370B83
:103BC000480B590BCA01B9010E94B11DE60EF71E40
:103BD000081F191FB701C8011F910F91FF90EF90A7
:103BE0000895009729F0BC0180E090E00E94E8036E
:103BF00008955058BB27AA270ED04DC13ED130F0B2
:103C000043D120F031F49F3F11F41EF433C10EF480
:103C1000E095E7FB29C1E92F4FD180F3BA1762077E
:103C200073078407950718F071F49EF567C10EF4C9
:103C3000E0950B2EBA2FA02D0B01B90190010C01BC
:103C4000CA01A0011124FF27591B99F0593F50F4D4
:103C5000503E68F11A16F040A22F232F342F44272C
:103C6000585FF3CF469537952795A795F040539524
:103C7000C9F77EF41F16BA0B620B730B840BBAF0F4
:103C80009150A1F0FF0FBB1F661F771F881FC2F75F
:103C90000EC0BA0F621F731F841F48F48795779573
:103CA0006795B795F7959E3F08F0B3CF9395880F2A
:103CB00008F09927EE0F9795879508950CD0EBC0E3
:103CC000E3D040F0DAD030F021F45F3F19F0CCC0FF
:103CD000511115C1CFC0F0D098F39923C9F35523E2
:103CE000B1F3951B550BBB27AA27621773078407EF
:103CF00038F09F5F5F4F220F331F441FAA1FA9F3A5
:103D000033D00E2E3AF0E0E830D091505040E69596
:103D1000001CCAF729D0FE2F27D0660F771F881FF7
:103D2000BB1F261737074807AB07B0E809F0BB0BE6
:103D3000802DBF01FF2793585F4F2AF09E3F51050A
:103D400068F092C0DCC05F3FECF3983EDCF38695F0
:103D500077956795B795F7959F5FC9F7880F911D80
:103D60009695879597F90895E1E0660F771F881F6C
:103D7000BB1F621773078407BA0720F0621B730B1F
:103D8000840BBA0BEE1F88F7E095089504D0689471
:103D9000B111B5C0089598D088F09F5790F0B92F11
:103DA0009927B751A0F0D1F0660F771F881F991F90
:103DB0001AF0BA95C9F712C0B13081F09FD0B1E0C6
:103DC00008959CC0672F782F8827B85F39F0B93FD6
:103DD000CCF3869577956795B395D9F73EF4909592
:103DE0008095709561957F4F8F4F9F4F0895E89410
:103DF00009C097FB3EF490958095709561957F4F33
:103E00008F4F9F4F9923A9F0F92F96E9BB279395E0
:103E1000F695879577956795B795F111F8CFFAF4F0
:103E2000BB0F11F460FF1BC06F5F7F4F8F4F9F4F21
:103E300016C0882311F096E911C0772321F09EE87F
:103E4000872F762F05C0662371F096E8862F70E0E5
:103E500060E02AF09A95660F771F881FDAF7880FBF
:103E60009695879597F9089597F99F6780E870E090
:103E700060E008959FEF80EC089500240A941616E0
:103E8000170618060906089500240A941216130648
:103E9000140605060895092E0394000C11F48823D6
:103EA00052F0BB0F40F4BF2B11F460FF04C06F5FF2
:103EB0007F4F8F4F9F4F089557FD9058440F551FC8
:103EC00059F05F3F71F04795880F97FB991F61F09C
:103ED0009F3F79F087950895121613061406551F13
:103EE000F2CF4695F1DF08C0161617061806991F7F
:103EF000F1CF86957105610508940895E894BB2774
:103F000066277727CB0197F908950BD0C4CFB5DF8B
:103F100028F0BADF18F0952309F0A6CFABCF112413
:103F2000EECFCADFA0F3959FD1F3950F50E0551F58
:103F3000629FF001729FBB27F00DB11D639FAA27FE
:103F4000F00DB11DAA1F649F6627B00DA11D661F4D
:103F5000829F2227B00DA11D621F739FB00DA11D6E
:103F6000621F839FA00D611D221F749F3327A00D28
:103F7000611D231F849F600D211D822F762F6A2FC4
:103F800011249F5750408AF0E1F088234AF0EE0F49
:103F9000FF1FBB1F661F771F881F91505040A9F756
:103FA0009E3F510570F060CFAACF5F3FECF3983E83
:103FB000DCF3869577956795B795F795E7959F5FBD
:103FC000C1F7FE2B880F911D9695879597F9089557
:103FD000FA01EE0FFF1F30962105310599F16115A9
:103FE000710561F48038BFE39B0749F1689490380C
:103FF000810561F08038BFEF9B0741F0992342F5BE
:10400000FF3FE1053105210511F1E8940894E7959A
:10401000D901AA2329F4AB2FBE2FF85FD0F310C02B
:10402000FF5F70F4A695E0F7F73950F019F0FF3A0A
:1040300038F49F779F930CD00F9007FC9058089509
:104040003EF018CF60E070E080E89FE308954FE70E
:104050009F775F934F933F932F939ED02F913F91E4
:104060004F915F9152DF05C019F40EF0FDCE46CF9F
:1040700001CF2ADFC8F39638C0F707F80F92E8940B
:104080002BE33AEA48EB5FE74EDF0F920F920F9275
:104090004DB75EB70F92C0D0E8E6F0E016D04F9172
:1040A0005F91EF91FF91E595EE1FFF1F49F0FE57DD
:1040B000E0684427EE0F441FFA95E1F74195550B50
:1040C00032D00F9007FE26C00895DF93CF931F9341
:1040D0000F93FF92EF92DF927B018C01689405C0F1
:1040E000DA2EEF011EDFFE01E894A59125913591AE
:1040F00045915591AEF3EF018EDDFE019701A801C8
:10410000DA9479F7DF90EF90FF900F911F91CF91A4
:10411000DF9108959B01AC0160E070E080E89FE3CF
:10412000CDCDA2CEACC0D0DEE8F39923D9F3940F65
:10413000511DBBF39150504094F059F0882332F058
:10414000660F771F881F91505040C1F79E3F510561
:1041500044F7880F911D9695879597F908955F3FCD
:10416000ACF0983E9CF0BB27869577956795B79500
:1041700008F4B1609395C1F7BB0F58F711F460FFD5
:10418000E8CF6F5F7F4F8F4F9F4FE3CFB8CE0EF0DA
:1041900076C070CE689468CE97DEC8F39923D1F3C9
:1041A000C6F3DF93CF931F930F93FF92C92FDD27A1
:1041B00088232AF02197660F771F881FDAF720E0FF
:1041C00030E040E85FEB9FE3883920F0803E30F03C
:1041D00021968F770FDDE0E9F0E003C00BDDEDEB1A
:1041E000F0E073DF8B01BE01EC01FB2E6F5771090C
:1041F0007595771F880B990BFCDD28E132E741E3C9
:104200005FE38FDEAF2D9801AE01FF900F911F91FC
:10421000CF91DF9100DD3FCEFA01DC01AA0FBB1F79
:104220009B01AC01BF5728F422273327442750783D
:104230001FC0B75188F4AB2F0024469537952795BA
:10424000011CA395D2F3002069F0220F331F441FF5
:10425000B395DAF30DD0CDCC61307105A0E88A07B3
:10426000B94630F49B01AC01662777278827907800
:10427000309621F0208331834283538308959F3FFA
:1042800049F0915028F4869577956795B7959F5F8B
:1042900080389F4F880F9695879597F90895629F6C
:1042A000D001739FF001829FE00DF11D649FE00D2E
:1042B000F11D929FF00D839FF00D749FF00D659F8F
:1042C000F00D9927729FB00DE11DF91F639FB00D8E
:1042D000E11DF91FBD01CF0111240895AA1BBB1BCD
:1042E00051E107C0AA1FBB1FA617B70710F0A61BF6
:1042F000B70B881F991F5A95A9F780959095BC0117
:10430000CD01089597FB092E07260AD077FD04D02A
:10431000E5DF06D000201AF4709561957F4F08956F
:10432000F6F7909581959F4F0895A1E21A2EAA1B4A
:10433000BB1BFD010DC0AA1FBB1FEE1FFF1FA21755
:10434000B307E407F50720F0A21BB30BE40BF50B52
:10435000661F771F881F991F1A9469F760957095DB
:10436000809590959B01AC01BD01CF01089597FB0D
:10437000092E05260ED057FD04D0D7DF0AD0001C29
:1043800038F450954095309521953F4F4F4F5F4FF2
:104390000895F6F790958095709561957F4F8F4FB2
:1043A0009F4F0895EE0FFF1F0590F491E02D0994A3
:1043B0002F923F924F925F926F927F928F929F9235
:1043C000AF92BF92CF92DF92EF92FF920F931F9323
:1043D000CF93DF93CDB7DEB7CA1BDB0B0FB6F894D4
:1043E000DEBF0FBECDBF09942A88398848885F8414
:1043F0006E847D848C849B84AA84B984C884DF8085
:10440000EE80FD800C811B81AA81B981CE0FD11D68
:104410000FB6F894DEBF0FBECDBFED010895F8943E
:02442000FFCFCC
:10442200456C6576656E0053636F7265203A00488D
:10443200696768657374203A0047616D65206F761D
:10444200657200576F6E2021004C4F414445520067
:1044520001000000CA01D201DA01E20101010000FB
:064462000000AE0F091C72
:00000001FF
